:10000000C0190010F1BD00000B02000081BC00000F
:100010008DBC000091BC000095BC00001034FCEFCA
:1000200000000000000000000000000099BC00007B
:100030009DBC000000000000A1BC00001F5A000091
:100040000B0200000B0200000B0200000B0200007C
:100050000B0200000B0200000B0200000B0200006C
:100060000B0200000B0200000B0200000B0200005C
:10007000F9640000A1BA00006DBA00000B02000094
:10008000EDBA00000B0200002D720000DD720000CE
:100090000B020000736D00000B0200000B02000059
:1000A0000B0200003D6B00000B0200000B02000081
:0C00B0000B0200000B0200000B0200001D
:1001240080B5012107F049FC02BD80B5002801D14A
:10013400002002E007F05AFC012002BD10B401685F
:10014400001D00290FD00268821843680830DC07BC
:1001540002D54C46641E1B1914681C60121D1B1D1D
:10016400091FF9D1EBE710BC7047000010B51A481D
:1001740000689021014318480160184800689021E4
:100184000143164801601648006890210143144851
:10019400016014480068902101431248016012482C
:1001A40000689021014310480160142405E00022F6
:1001B4002100002006F0E3FB641C192CF7DB0B483C
:1001C4000068902101430948016000221B2100209E
:1001D40006F0D5FB10BD00000C4004401040044064
:1001E40014400440184004401C400440284004408B
:1001F40080B501000020C043052903D2143100203A
:1002040006F026FC02BDFEE770B50024002818D0D5
:10021400002A16D0C7240B0000E05B1C8D18AB42EB
:100224000FD22500C45C6C40002501E064006D1C05
:10023400082DF2D226003606F8D566001D24744037
:10024400F5E7E0B270BD4118884204D00022027084
:10025400401C8842FBD170474C494E4B2020202043
:100264002020202020200000A0D3918D0818CCCD80
:10027400122F451E2CA8278D1E6F95417C064D31EB
:1002840052BB8BD0A15E5235FFFFFFFF010000007F
:10029400FFFFFFFFFFFFFFFFFFFFFFFFFFFFFFFF6A
:1002A400FFFFFFFF03000000FFFFFFFFFFFFFFFF53
:1002B400FFFFFFFFFFFFFFFF02000000F40100004B
:1002C40000093D0000093D0000093D001BFC9D02A2
:0402D400FF00000027
:1003000080B5664B1B68002B31D0C0B20300052BB3
:100310000FD0062B19D0082B23D1614988310978D9
:10032000490705D5D2B2FF21C0B25C4B1B68984784
:100330001DE05B4B88331B781B0705D5D2B2C9B2D1
:10034000C0B2564B1B68984711E0554B88331B7859
:10035000DB0605D5D2B2C9B2C0B2504B1B68984774
:1003600005E0D2B2C9B2C0B24C4B1B6898474D48A9
:10037000FF21C17001BD80B5002905D001F074F8DE
:1003800002F00EF902F0DCFF01BD00B5002100E033
:10039000491C022908DA20224A43414B9A18126963
:1003A0008242F5D1012000E0002000BD10B50021FF
:1003B000C943002200E0521C022A07DA20235343DB
:1003C000374CE3181B698342F5D111000020C0436C
:1003D000814208D02020414331484018416908003B
:1003E000C007C00F00E0002010BD70B586B0060049
:1003F0000C00150020206043294908188169C9B202
:10040000412910D126480069002803D024484069BA
:10041000C00607D42248006B002804D02048406B57
:10042000C00600D54221202060431D4A1018C26931
:10043000C9B2300000F0A7F920206043184908181D
:100440004069800716D500200190002000902020F0
:10045000604313490818C36A2020604310490818F4
:10046000826A202044430E480019416AC9B2300014
:1004700003F004FC002D0FD0002004900020039016
:100480000020029080200190002000908023002214
:100490008021300003F0D9FF06B070BD04130010B6
:1004A000540D00104C10001070B586B005000E0001
:1004B0002800FFF77BFF002800D04FE10024E44331
:1004C000002000E0401C022807DA20214143CC4AEA
:1004D00051180969A942F5D104000020C0438442A3
:1004E00000D13BE1F6B2002E13D0012E17D0022E20
:1004F00016D0032E00D190E0042E00D1A4E0052EEA
:1005000000D1A8E0072E00D1D1E0082E00D1FAE0FA
:1005100024E1012221002800FFF767FF1EE11DE111
:10052000CE48007BC00761D520206043B44908183D
:1005300080695C2834D00022D2434121280000F099
:1005400022F90020049001200390002002908020D6
:10055000019000200090802300228021280003F0D9
:1005600074FF20206043A64908184069800753D5CE
:10057000002001900020009020206043A04908182E
:10058000C36A202060439E490818826A20204443A1
:100590009B480019416AC9B2280003F06FFB3BE099
:1005A0002020604396490818C06900280CD42020F8
:1005B000604393490818C0698021014320206043AB
:1005C0008F4A1018C16105E0202060438C4908184B
:1005D0008021C1610022D2434121280000F0D3F8DC
:1005E000002221002800FFF700FF15E00022D2437F
:1005F0004121280000F0C7F800200490012003905A
:100600000020029080200190002000908023002292
:100610008021280003F019FFA0E00022D2434821E6
:10062000280000F0B0F80120049001200390002081
:1006300002908020019000200090802300228021E1
:10064000280003F002FF89E00022D243492128005C
:1006500000F099F882E02020604369490818006A98
:1006600000280DD0002221002800FFF7BEFE012047
:100670000090012300220721280003F02DFF05E050
:100680000022D2434C21280000F07DF80120049084
:10069000052003900020029080200190002000900F
:1006A000802300228021280003F0CFFE56E0202086
:1006B000604353490818006A00280DD00022210029
:1006C0002800FFF792FE0720009007230022002158
:1006D000280003F001FF05E00022D2434A21280050
:1006E00000F051F8012004900520039000200290B2
:1006F000802001900020009080230022802128008B
:1007000003F0A3FE2AE0202060433D490818006A58
:1007100000280DD0002221002800FFF766FE0120EE
:100720000090012300220721280003F0D5FE05E0F8
:100730000022D2434B21280000F025F8012004902C
:10074000052003900020029080200190002000905E
:10075000802300228021280003F077FE06B070BDC0
:1007600038B5040056480470002509E02100C9B2DC
:1007700020206843224A10180069FFF795FE6D1C7F
:10078000022DF3DB31BD70B504000D001600200012
:10079000FFF7FBFD00280AD02000FFF707FE002826
:1007A00005D132002900C9B2200003F005FE70BD5A
:1007B00010B5032801D31E2021E00021C9430022E7
:1007C00000E0521C022A07DA202353430C4CE318A2
:1007D0001B698342F5D111000020C04381420DD036
:1007E00020204843064A1018406901220243202075
:1007F0004143034840184261002000E0212010BD21
:10080000540D001010B5032801D31E2025E000214F
:10081000C943002200E0521C022A07DA2023534376
:10082000BE4CE3181B698342F5D111000022D2436C
:10083000914211D020224A43B84B9A1852690123A1
:100840009A4320235943B54B59184A611C490978EA
:10085000FFF72AFE002000E0212010BD4C10001000
:1008600080B50100AD480069002803D0AB4880691D
:10087000412807D0A948006B002805D0A748806B05
:10088000412801D1012000E00020C0B2A34A126932
:10089000002A03D0A14A5269D20607D49F4A126B9C
:1008A000002A05D09D4A526BD20601D5012200E0F4
:1008B0000022D2B2002A00D0002000F0DBFE02BDF0
:1008C0006800001000B5422803D0522801D05E28ED
:1008D00007D1002903D030201040302801D001205A
:1008E00000E00020C0B200BDF0B58DB006000025CC
:1008F000062000242BE0210041437118497804228E
:10090000624305AB99502100414371188978042254
:10091000624303AB9950210041437118C978042206
:10092000624301AB995021004143711809790422B7
:1009300062430BAB9950210041437118497904225D
:10094000624309AB995025004543AD1D641C022C40
:100950000EDA21004143715C0422624307AB9950D7
:100960000421614307AA51580329C4D31E20D2E0B1
:100970006A480078C00701D51A20CCE0002418E0AE
:10098000202060436549081800214162202060430F
:100990006249081800218162202060435F490818DD
:1009A000406902218843202161435C4A5118486113
:1009B000641C022C00DBAAE0202060435749081881
:1009C0000421614307AA5158016120206043534923
:1009D0000818002141612020604350490818042173
:1009E000614305AA515881610420604301A90A5856
:1009F0000420604303A909580420604305AB18583C
:100A0000FFF760FF00280BD02020604343490818FF
:100A100040691021014320206043404A1018416181
:100A20000420604303A90858002804D00420604330
:100A300001A9085801E00020C04320216143374A42
:100A40005118C861202060433449081804216143CB
:100A500009AA515801622020604330490818C06A31
:100A6000FFF765FB202060432C4908180021C16274
:100A7000042060430BA90858002800D180E7705D6E
:100A800000906D1C775D6D1C3800FFF74BFB002854
:100A90000DD1202060432149081840690221884374
:100AA00020214C431D4909194861152033E02021BC
:100AB00061431A4A5118009A4A6220216143174A39
:100AC00051188F6220216143144A5118C8620020D6
:100AD00008E020216143114A5118C96A2A18B25C02
:100AE0000A54401CB842F4D3202060430B49081834
:100AF00040690221014320206043084A10184161E7
:100B00002020604305490818806A2D1850E701200D
:100B1000FFF7A6FE00200DB0F0BD0000540D001040
:100B2000FBB51600089F0C98B2490968491CB14AE8
:100B300011600099032901D31E203EE10024E44303
:100B4000002100E0491C022908DA20224A43AA4B6E
:100B50009A181269009B9A42F4D10C000021C943F3
:100B60008C4201D1212028E1002520216143A24AA5
:100B700051188969019A914206D1202161439E4A08
:100B80005118096A814200D00125202161439A4A07
:100B90005118019A8A6120216143974A51180862CD
:100BA000029A31000198FFF78DFE00280CD020201A
:100BB000604391490818416910200843202161438E
:100BC0008D4A511848610BE0202060438A4908187B
:100BD00040691021884320216143874A51184861A8
:100BE000002E0FD02020604383490818C069029965
:100BF000884200D00125202060437F4908180299CF
:100C0000C16110E0202060437B490818C0690021C1
:100C1000C943884200D00125202060437649081846
:100C20000021C943C1610026002F07D02020604366
:100C3000714908184069800700D40126002F07D1A8
:100C4000202060436C4908184069800700D50126C0
:100C5000002F28D02020604367490818406A09996E
:100C6000884207D12020604363490818806A0A99A6
:100C7000884200D00126202060435F490818C06ADE
:100C8000002810D000200BE0202161435A4A51185F
:100C9000C96A095C0B9A125C914200D00126401C83
:100CA0000A998842F0D32020604353490818C06A4B
:100CB000FFF73DFA202060434F4908180021C16228
:100CC000002F3ED00A98FFF72DFA00280DD12020E2
:100CD00060434949081840690221884320214C4358
:100CE000454909194861152067E020216143424ABE
:100CF0005118099A4A62202161433F4A51180A9AC1
:100D00008A62202161433C4A5118C862002008E0F1
:100D100020216143384A5118C96A0B9A125C0A545F
:100D2000401C0A998842F3D32020604332490818B6
:100D3000406902210143202044432F4800194161AA
:100D400017E0202060432C49081800214162202030
:100D50006043294908180021816220206043264908
:100D6000081840690221884320214C43224909196F
:100D70004861FF202E43002E1ED00020FFF770FD9B
:100D80009D490968002917D0C0B2FF2803D0C0B21E
:100D9000FFF7E6FC10E0B5484078002804D10021B8
:100DA0000098FFF781FB07E0B0484078022803D1A4
:100DB00002210098FFF778FB0020FEBD38B5050042
:100DC0000C00EDB20C4840194078FF2801D10A20F0
:100DD0000EE02100EDB208484019407802F0AAFB6D
:100DE0002100EDB204484019407802F0DBF8002001
:100DF00032BD0000F8120010540D001038B5050087
:100E00000C00EDB2A7484019C07AFF2801D10A2092
:100E10006DE0EDB2002D0DD1A2488830007840077A
:100E200006D59248007F0100C907C90F8C4201D145
:100E300000205CE0EDB2012D0DD19A488830007899
:100E4000000706D58948007F01008907C90F8C4239
:100E500001D100204BE0EDB2022D0DD19148883038
:100E60000078C00606D58148007F01004907C90FF8
:100E70008C4201D100203AE0EDB2002D0BD17B482D
:100E8000007FFE21014020000200D207D20F0A435A
:100E9000764802771CE0EDB2012D0BD17348007F3C
:100EA000FD210140200040000222104008436F490C
:100EB00008770DE0EDB2022D0AD16C48007FFB21CE
:100EC0000140200080000422104008436749087751
:100ED0002100EDB273484019C07A02F02BFB2100CB
:100EE000EDB270484019C07A02F05CF8002032BDC3
:100EF00000B5C0B26B4909188979FF2901D10A20D0
:100F000028E0C0B26749081880798E490968012233
:100F100082400A40002A1CD08A4909680122824086
:100F20009143884A1160AB49095C002901D10D2029
:100F300010E0A849095C012901D10C200AE0A5496B
:100F4000095C032903D0A349085C022801D10F20C2
:100F500000E0102000BD00B50021524A1269002AAD
:100F60001DD0504A126B002A19D04E4A5269D2063F
:100F700003D54C4A926B412A07D04A4A526BD2069B
:100F800004D5484A9269412A00D10121454A526953
:100F9000D20604D5434A526BD20600D50121414AFC
:100FA0001269002A08D03F4A126B002A04D13D4A38
:100FB0005269D20600D501213A4A126B002A08D0A4
:100FC000384A1269002A04D1364A526BD20600D53B
:100FD0000121002904D0C0B2012801D0002009E07D
:100FE0002248807801210143204881701F48022156
:100FF000C170002000BD0000F412001010B50024E4
:1010000010E0514800194078FF280AD04E480019D6
:10101000407802F001FB01004B480019407801F0D4
:10102000C1FF641C052CECD3002410E046480019D5
:10103000C07AFF280AD044480019C07A02F0ECFABE
:10104000010041480019C07A01F0ACFF641C032C78
:10105000ECD310BD80B560490968002904D05F4910
:1010600009784068FFF720FA01BD00004C1000101D
:1010700010B504006068FFF7C5FB212805D10022E8
:10108000D2434021200003F074F810BD80B5524ACD
:101090001268002A04D0002902D04068FFF7B2FB92
:1010A00001BD0000540D001080B54B4909680029AE
:1010B00020D0C0B2002803D0022813D009D319E0F1
:1010C00047490979890703D50121C0B2FFF796FE88
:1010D00010E043494978052903D10121C0B2FFF747
:1010E0008DFE07E03E49097BC90603D50121C0B248
:1010F000FFF784FE01BD80B537490968002920D07B
:10110000C0B2002803D0022813D009D319E0344913
:101110000979890703D50021C0B2FFF76FFE10E0FF
:101120002F494978052903D10021C0B2FFF766FE97
:1011300007E02B49097BC90603D50021C0B2FFF7A0
:101140005DFE01BD60120010540D001038B50C009A
:1011500015002149096800292CD09E498831097859
:10116000490709D5002807D11D480079800703D514
:1011700000210020FFF742FE9648883000780007E3
:1011800009D5002C07D116484078052803D1002145
:101190000120FFF733FE8F4888300078C00609D55C
:1011A000002D07D10E48007BC00603D50021022088
:1011B000FFF724FE31BD80B5A24803F022FFA2480C
:1011C00003F022FFA14803F022FFA14802F08EFCA9
:1011D00001BD000008110010F4120010680000109A
:1011E0004C100010F8B506009A480068002801D09D
:1011F0000020EDE098480068002805D1974802F0EB
:1012000057FC95480121016095480068002805D1E8
:10121000944802F011FC924801210160F6B2062EBA
:1012200001D30420D4E0B848007B0400A407E40FF5
:10123000B548076AB448007F05002D07ED0F6846E2
:10124000B149C978017024220021AF4804F01EFB87
:10125000AD480670AC480078002806D002281ED0A1
:101260001CD3042835D033D34BE05A48C079FF282B
:1012700001D11820ACE057484078FF2801D1172051
:10128000A6E054488079FF2801D01C20A0E05148F6
:10129000007AFF2801D01D209AE032E031E04D486D
:1012A000C079FF2801D1182092E04A488079FF28B0
:1012B00001D119208CE047484078FF2801D1172040
:1012C00086E04448007AFF2801D01D2080E018E025
:1012D00017E040484078FF2801D1172078E03D48CA
:1012E000C079FF2801D01B2072E03A488079FF289E
:1012F00001D01C206CE03748007AFF2801D01D2067
:1013000066E0544801210160324800780121014320
:10131000304801707C48007CFB2101407A48017410
:101320007948007CF7210140774801747648007CB9
:10133000FE210140744801747348007BFB21014089
:10134000714801737048007BFE21014020000200BB
:10135000D207D20F0A436C4802736B48007BFD2111
:101360000140600002221040084367490873664844
:10137000FF21C170002D1DD0380004F095FBA74956
:1013800088421ED201210420FFF718FD5E48032188
:10139000417004F086FB5C4988600320FFF7E0F9A8
:1013A0005948007BC0060CD4FF2202210320FEF71F
:1013B000A7FF06E05448007B800702D40020FFF717
:1013C000CFF90A21A84804F0D1FBFFF717FE00204F
:1013D000F2BD0000540D001080B54B480079800725
:1013E0000CD5A24888300078400707D59F48C07ABE
:1013F000FF2803D000210020FFF700FD424840787D
:1014000005280CD1994888300078000707D59748FF
:10141000007BFF2803D000210120FFF7EFFC3A48B2
:10142000007BC0060CD5914888300078C00607D5EF
:101430008E48407BFF2803D000210220FFF7DEFC0E
:1014400001BD0000A9100000F71000004D110000C0
:1014500071100000F4120010FC1200105510000072
:10146000001300108D10000080B58148006801282D
:1014700039D125484078032801D1012000E000201F
:101480002149097FF7220A40C00008210840104383
:101490001D490877002000F0C3F800210420FFF761
:1014A0008DFC00210220FFF7A9FC00210120FFF79D
:1014B000A5FC00210020FFF7A1FC6D480021016080
:1014C0006A480078FE21014068480170664804F0CF
:1014D00090FBFFF781FF03F010FE03F09BFD04F08B
:1014E000E0FA09490862002002BD00B5064880788C
:1014F000C00707D504488078FE210140024881706A
:10150000012000E0002000BD4C100010F8B50026BE
:1015100000250FE00F2800D10126002E09D1102848
:1015200007D00F2805D0B148007BDF210140AF482C
:1015300001736D1C022D67D24C484019407AFF2878
:10154000F7D0102049494919497AA94A126801235C
:101550008B401340002B1BD0A54A126801238B40FF
:101560009A43A34B1A60A34A525C002A01D10D2072
:101570000EE0A04A525C012A01D10C2008E09D4AED
:10158000525C032A03D09B4A515C022900D10F20F0
:101590000C28BFD1002700240CE00021C9B2202074
:1015A0006043324B18188069FFF78CF9002800D08F
:1015B0000127641C022C1DDA202060432B490818E7
:1015C00000690028F5D02020604328490818C06928
:1015D000002801D5002204E0202060432349081898
:1015E000C2692020604321490818C0690028D4D46A
:1015F0000121D3E7002F07D17C48807801210143E6
:101600007A4881707948C570002E05D07748007BF4
:101610002021014375480173F1BD000088130000CB
:1016200010B504007148007B01004907C90F8C42C6
:1016300019D021000020FFF7C1FB21000220FFF795
:10164000BDFB21000120FFF7B9FB21000320FFF7BC
:10165000B5FB6648007BFB210140A000042210403E
:1016600008436249087310BD071F0000540D0010A5
:10167000F412001010B50C00B6490968002900D119
:1016800093E05A49097BC90745D5002843D15748FB
:10169000007BFE210140554801730020FFF7C0FF89
:1016A00052484078032804D10020FFF754FCFF2063
:1016B0009AE04E4840780228F9D1A7488079FF285F
:1016C00012D04A48042141704848007BC00604D427
:1016D000FF22FF210420FEF713FE002C02D004207D
:1016E000FFF73EF804207FE04048002141700021D0
:1016F0000420FFF763FB3D48007BC00604D4FF22B3
:1017000000210020FEF7FCFD002C02D00020FFF796
:1017100027F8002068E03549097BC90754D401281F
:1017200052D13248007B01210143304801732F48D8
:101730004078002806D10120FFF772FF0121042024
:10174000FFF73CFB29484078002807D0274840781D
:10175000012803D025484078042810D123480221CD
:1017600041702248007BC00604D4FF22FF210220E2
:10177000FEF7C6FD002C02D00220FEF7F1FF1B4849
:101780004078032805D10120FFF74AFF0020FFF72A
:10179000E2FB16484078052805D10120FFF740FFFD
:1017A0000020FFF7D8FB02201EE0002801D0012115
:1017B00000E000210D4A127BFD2313404900022264
:1017C00011401943094A1173002801D0012000E09B
:1017D00000200649097BFE220A400100C907C90F03
:1017E000114302480173FF2010BD00004C1000108F
:1017F000601200100811001000B5C0B2002808D017
:1018000002280AD007D304280BD008D305280AD011
:101810000BE000200AE0012008E0022006E003209F
:1018200004E0042002E0052000E0002000BD00B537
:10183000C0B2494A12189279FF2A16D0C0B2C84ADB
:101840001218527B002A07D10F290ED1C0B2C44909
:1018500008180121417308E0102906D00F2904D08F
:10186000C0B2BF4908180021417300BD38B501203E
:10187000FFF73EFB04000020FFF73AFB05000C2CAD
:1018800005D1B748007C01210143B54801740D2CF6
:1018900005D1B348007CFE210140B14801740C2DF4
:1018A00005D1AF48007C02210143AD4801740D2DE4
:1018B00005D1AB48007CFD210140A9480174FFF728
:1018C00025FE21000120FFF7B2FF29000020FFF7CD
:1018D000AEFF0021002000E0401C032805D2A04AF2
:1018E0001218527B002AF7D001219D48007BC006C8
:1018F00015D4012903D09A48007B800628D5984842
:10190000007B1021014396480173FF22032106202A
:10191000FEF7F6FC01210220FFF770FA18E001291A
:1019200016D08F48007B800612D48D48007BEF21B3
:1019300001408B4801738A484078FFF75DFFFF2222
:101940000421C0B2FEF7DCFC00210220FFF756FAAA
:1019500031BD0000F4120010540D001080B5804815
:10196000007BC00701D5002085E07D48007C400752
:1019700019D47B48007CC00715D5794840780228E7
:1019800011D07748407803280DD075484078052855
:1019900009D004F086F8724948617148007C04213E
:1019A00001436F4801746E48007C400743D56C4882
:1019B000406904F079F8B149C96E88423BD3684860
:1019C000007CFB210140664801746548007CC0072B
:1019D00017D563484078022813D06148407803281F
:1019E0000FD0FF2203210520FEF78AFC01210120F0
:1019F000FFF704FA0520FEF7B3FE594805214170B0
:101A000017E09E4870300078C00712D5FF220321EE
:101A10000520FEF775FC01210120FFF7EFF9504882
:101A2000007C082101434E48017404F03AF84C4907
:101A3000886101201FE04A48007C00071AD5484809
:101A4000806904F031F8FF21F631884212D344480E
:101A50004078FFF7D1FEFF220421C0B2FEF750FC10
:101A600000210120FFF7CAF93D48007CF721014021
:101A70003B480174002002BD80B53948007BC00797
:101A800037D53748007B800733D50120FFF7C8FDE5
:101A900001210420FFF792F93148007CC00713D5DB
:101AA0002F480321417003F0FCFF2D49886003207B
:101AB000FEF756FE2A48007BC00614D4FF220221FE
:101AC0000320FEF71DFC0EE02548007BC00604D471
:101AD000FF22FF210220FEF713FC21480221417062
:101AE0000220FEF73DFE1E48007BFD2101401C4800
:101AF0000173FFF7FAFC002830D00120FFF790FDBA
:101B000001210420FFF75AF95C488079FF2810D0A2
:101B10001348007BC00605D41148C278FF2101207C
:101B2000FEF7EEFB0E48012141700120FEF718FE82
:101B30000FE00B48007BC00605D40948C278FF219E
:101B40000220FEF7DDFB0648022141700220FEF76D
:101B500007FE03F0A6FF02498860FFE701BD000011
:101B60004C10001080B5FFF7C0FC002803D003F034
:101B700098FFC2498860C148806803F095FF3F49DB
:101B8000096D884216D30020FFF74AFD002104208A
:101B9000FFF714F9B948002141700020FEF7E0FD7D
:101BA000B648007BC00604D4FF2201210020FEF7C6
:101BB000A7FB12E0B148007C80070ED4AF48007B41
:101BC000C00604D4FF22FF210220FEF799FBAB4898
:101BD000022141700220FEF7C3FD01BD80B5A74878
:101BE000007BC00729D4FFF780FC002803D003F056
:101BF00058FFA2498860A148806803F055FF1F493B
:101C0000096E1E4A126D8918884216D30020FFF70C
:101C100007FD00210420FFF7D1F89848002141700A
:101C20000020FEF79DFD9548007BC00604D4FF22EE
:101C300001210020FEF764FB1EE09048007CC007F5
:101C40001AD58E48007BC00702D40020FFF7E8FCBD
:101C50008A480321417003F024FF884988600320EB
:101C6000FEF77EFD8548007BC00604D4FF220221DA
:101C70000320FEF745FBFFE701BD0000540D0010F7
:101C800080B5FFF732FC002835D07C48007980070A
:101C900016D57A480079FD2101407848017100216C
:101CA0000020FFF7ABF87548C278FF210320FEF74C
:101CB00027FB0320FEF754FD01210420FFF77EF8E7
:101CC0006E480079C00712D56C480079FE210140AA
:101CD0006A4801716948007BC00605D46748C2782C
:101CE000FF210320FEF70CFB0320FEF739FD03F074
:101CF000D8FE624988606148806803F0D5FE5F497C
:101D0000097BC90749D45D490979890724D49249D7
:101D1000496D884220D35948007902210143574830
:101D2000017156480079FE21014054480171082094
:101D3000FEF716FD5148007BC00604D4FF22FF21A8
:101D40000820FEF7DDFA01210020FFF757F80021F7
:101D50000420FFF733F820E04849097989071CD4AB
:101D600046490979C90718D47B49496D7A4A926D69
:101D7000891A884211D341480079012101433F4823
:101D800001710720FEF7ECFC3C48007BC00604D440
:101D9000FF22FF210720FEF7B3FA3848007CC00776
:101DA00052D436480079800709D534480079FD219E
:101DB00001403248017100210020FFF71FF82F4831
:101DC0000079C00705D52D480079FE2101402B4838
:101DD00001712A48007BC00727D45F488079FF281B
:101DE0000FD02648042141700420FEF7B9FC234897
:101DF000007BC00628D4FF22FF210420FEF780FAD2
:101E000022E01E48002141700020FEF7A9FC1B487B
:101E1000007BC00604D4FF2200210020FEF770FAE8
:101E200000210420FEF7CAFF0EE014480221417091
:101E30000220FEF795FC1148007BC00604D4FF2267
:101E4000FF210220FEF75CFA01BD80B50B48007C43
:101E5000800712D50948002141700020FEF780FC60
:101E60000648007BC00604D4FF2200210020FEF7B4
:101E700047FA00210420FEF7A1FF01BD4C1000101D
:101E800080B5FFF732FB002821D034480079FE21CD
:101E900001403248017103F004FE304988602F4848
:101EA000032141700320FEF75BFC2C48007BC00639
:101EB00005D42A48C27802210320FEF721FA002126
:101EC0000120FEF79BFF01210420FEF777FF234846
:101ED000007CC00716D42148002141700020FEF785
:101EE0003FFC1E48007BC00604D4FF2204210020D2
:101EF000FEF706FA00210120FEF780FF00210420F2
:101F0000FEF75CFF01BD80B515480068002821D0B0
:101F1000FFF7ACFCFFF722FD10484078002808D0FE
:101F200002280CD008D304280FD00BD305280FD0DB
:101F300010E0FFF7A1FD0DE0FFF714FE0AE0FFF748
:101F40004DFE07E0FFF79CFE04E0FFF77EFF01E097
:101F5000FFF796FF01BD0000540D00104C1000105B
:101F6000F41200108A49086070478A490860704777
:101F700089490860704780B53C214143874A511820
:101F8000496A3C224243854B9A18511820310978FE
:101F90007F4A1268002A0AD0814A126801238340CE
:101FA0001340002B03D0C9B2794A1268904701BD93
:101FB00038B5040000250AE0794800680121A940ED
:101FC0000143774801602800FFF7D5FF6D1C202DE5
:101FD0000AD20120A84020400028F7D003F0D9FE03
:101FE0008542E9D3022000E0002032BD80B56C4973
:101FF00000220A60FFF7DCFF02BD38B504000025AF
:1020000007E0674800680121A940884364490860E7
:102010006D1C202D0AD20120A84020400028F7D0B6
:1020200003F0B7FE8542ECD3022000E0002032BD71
:1020300010B5002403E02000FFF79DFF641C03F0AF
:10204000A8FE844208D23C2060435449085800212D
:10205000C9438842EFD1F1E74E480068002826D0F6
:10206000A54800780100C907C90F0720494A12682E
:102070009047A14800780100C9B2C9090820454A23
:102080001268904704F0B0F804009B4840780100C3
:10209000C907C90F09203F4A1268904796484078FF
:1020A00001008907C90F0A203A4A1268904710BDFB
:1020B00010B53C214143394A5158012910D1002122
:1020C0000CE004224A433C234343344CE3189A185F
:1020D00004234B43AE4CE3585361491C0329F0D30E
:1020E000002010BD00B53C2141432C4A5158002925
:1020F00006D13C21484329490818A649096841618D
:10210000002000BD10B5040003F043FE844202D35A
:102110000020C04310E0C348012101603C2060431F
:102120001E490022D2430A50FF21200004F0EAFA9F
:10213000BC4800210160002010BD10B5BA4B9A4286
:1021400002D30020C04320E0914202D30020C043CC
:102150001BE0884202D30020C04316E0B14B0124AB
:102160001C608B4B18608A4841608948826000245B
:1021700003E02000FFF79CFF641C03F00AFE84428A
:10218000F7D3A84800210160002010BD0000000026
:102190007012001074120010781200106C00001001
:1021A00064120010FEB504000E00089F099D03F0A4
:1021B000F0FD844202D30020C04347E0D048012113
:1021C00001600021200000F013FC200000F0FDF968
:1021D000322E00D232263C206043CA4901220A50E6
:1021E0003C206043C749081846603C206043C5490D
:1021F0000818019981603C206043C249081802997F
:10220000C1603C206043BF49081807613C2060431F
:10221000BC490818012181632000FFF749FF002D08
:1022200008D103200090012300220221200000F0A9
:102230000EF807E003200090002301220221200075
:1022400000F005F8AE48002101600020FEBDF4B5A5
:1022500004000E001F00069D03F09BFD844202D384
:102260000020C04346E06F480121016000212000AA
:1022700000F0BEFB3C206043A249081820300670E5
:102280003C2060439F490818213069460978017055
:102290003C2060439B490818223007703C20604373
:1022A00098490818233005703C2060439549081868
:1022B000012181635B48002101603C20604391491A
:1022C0000818806AFF2814D0B448005D3C2161439F
:1022D0008C4A5118496A3C2262438A4B9A18511819
:1022E00020310978C0B2C9B2884202D0200000F083
:1022F000D1FB0020F2BD00005C120010F4B5040018
:102300000E001F00069D03F044FD844202D300200E
:10231000C0433BE07A48012101600021200000F029
:1023200067FB200000F051F9322E00D232263C200B
:102330006043744900220A503C20604371490818E8
:1023400046603C2060436F490818009981603C203A
:1023500060436C490818C7603C206043694908180D
:10236000012181632000FFF7BDFE002D05D1002271
:102370000121200000F010F804E0012200212000DB
:1023800000F00AF85E48002101600020F2BD000064
:10239000AC1100106C12001070B504000D00160096
:1023A00003F0F7FC844202D30020C04338E01D480C
:1023B000012101600021200000F01AFB3C20604355
:1023C00050490818203005703C2060434D490818DA
:1023D000213006703C2060434A490818012181637E
:1023E0001048002101603C20604346490818806A7B
:1023F000FF2814D06948005D3C216143414A5118CF
:10240000496A3C2262433F4B9A185118203109789F
:10241000C0B2C9B2884202D0200000F03BFB0020CD
:1024200070BD000068120010FF03000038B5050001
:102430000C0003F0B1FC854202D30020C0435DE0F4
:1024400003F0A7FC844202D30020C04356E03C20A6
:1024500060432C490818006B0121A94001433C202E
:102460006043284A101801633C206043254908183E
:10247000406A3C216143234A5118081820300078F3
:10248000C0B201281BD13C2161431E4A5118496B3F
:102490000122AA400A40002A11D13C206043194978
:1024A0000818406B0121A94001433C2044431548D2
:1024B000001941630121280001F03CF81DE0C0B281
:1024C00000281AD13C2060430E490818406B0121B6
:1024D000A9400140002910D03C2060430949081858
:1024E000406B0121A94088433C214C43054909190F
:1024F00048630021280001F01DF8002032BD0000D3
:10250000681200106C00001038B504000D0003F0D4
:1025100043FC844202D30020C0433EE003F039FC78
:10252000854202D30020C04337E03C206843CB49BA
:102530000818006B0121A14088433C216943C74A28
:10254000511808633C206843C4490818406A3C217C
:102550006943C24A5118081820300078C0B20128D7
:102560001AD13C206843BD490818406B0121A140A5
:102570000140002910D00021200000F0DBFF3C20AA
:102580006843B6490818406B0121A14088433C21AB
:102590004D43B24949194863002032BD081100106B
:1025A00038B5002409E021002800FFF7ADFF6D1CBD
:1025B00003F0F2FB8542F6D3641C03F0EAFB84428D
:1025C00001D20025F4E7002032BD3C214143A34A5B
:1025D0005118FF228A623C214143A04A511800222F
:1025E000CA623C2141439D4A5118FF224A629C49DC
:1025F000FF220A54BD490968012282409143BB4829
:102600000160704738B5042003F06DFBB848FF2126
:1026100048310160B648DC2149004160B448B54901
:102620008160B548802189000160002445E03C209C
:1026300060438A490022D2430A503C2060438749C4
:102640000818322141603C20604384490818002169
:1026500081603C206043814908180021C1603C2012
:1026600060437E490818002101613C2060437B499A
:102670000818FF2181623C20604378490818002136
:1026800041623C20604375490818002101633C20E9
:10269000604372490818002141633C2060436F4940
:1026A0000818012181636E48FF2101552000FFF7C2
:1026B000FFFC2000FFF716FD641C03F06AFB844258
:1026C000B5D38A4800210160002017E0042141436E
:1026D000A74A0023535404214143A54A511800221C
:1026E0004A7004214143A24A511800228A700421F1
:1026F00041439F4A51180022CA70401C0428E5DB60
:102700009B48012101709A4802218170984801215B
:10271000C170974801210171954803214171944886
:102720000121C17100201DE018214143AE4A02235E
:10273000535018214143AC4A511832224A601821A3
:102740004143A94A511800228A6018214143A64AF0
:10275000511800220A6118214143A34A511800224E
:102760004A61401C0B28DFDB002006E018214143B2
:102770009D4A51189D4A4A60401C0628F6D3002203
:102780000621012004F0FDF800221321002004F0AE
:10279000F8F8FDF7EDFCBE480078C0B24008C4066A
:1027A000E40EBB4800783E210143B9480170002582
:1027B0000EE0B7480078C12101400122AA40D3436E
:1027C0005A0002403E2010400843B14908706D1C79
:1027D000052D1CD22800FDF70DFD18216943824A02
:1027E00051180861182068437F490818007CC00709
:1027F000DFD4A7480078C12101400122AA4052003D
:1028000002433E2010400843A1490870DFE7A0487A
:102810000078C0B24008C006C00EA04213D03348B2
:10282000006880214905014330480160B5480068CF
:10283000002808D096480078C0B24008C006C00EF4
:10284000B0490968884704F037F8AF4804F038FA0F
:102850000521AE4803F08AF931BD00006C0000107C
:102860000811001070B505000C00002603F091FA65
:10287000854201D3002037E03C206843A449085832
:102880000021C943884201D100202DE03C2068434B
:102890009F490858002807D0012810D00021C943BB
:1028A000884220D100201FE03C2045439848401931
:1028B0004069844201D2002016E0012014E0002685
:1028C00000E0761C032E0CD2042070433C216943A7
:1028D0008F4A5118081840698442F2D23000C0B2C1
:1028E00002E0032000E0002070BD00006012001034
:1028F000AC110010510200006C12001000B500284D
:1029000005D0022815D008D303281ED029E03C208A
:1029100041437F484018406828E03C2048437C4AB7
:10292000101840683C225143794A511809694018EF
:102930001CE03C204843764A101840683C22514332
:10294000734A51188968401810E03C204843704A87
:10295000101840683C2251436D4A5118C96840180C
:1029600004E03C2041436A484018406800BD000034
:102970001811001080B5C0B2C9B2884201D1002040
:1029800030E0C9B200290ED0022903D015D30329A3
:102990001DD026E01100C0B2042250435D4A105CF5
:1029A000FFF7ACFF1EE01100C0B204225043594AA9
:1029B00010184078FFF7A2FF14E01100C0B2042203
:1029C0005043544A10188078FFF798FF0AE011002E
:1029D000C0B2042250434F4A1018C078FFF78EFF50
:1029E00000E0002002BD0000FC060010DC05000035
:1029F00070B504000E00002544E03C2060434449CB
:102A00000818006B0121A9400140002939D0002E8F
:102A10001AD13C2060433E490818406B0121A9406F
:102A20000140002910D03C20604339490818406B10
:102A30000121A94088433C216143354A511848632C
:102A40000021280000F076FD002E1AD03C206043C3
:102A50002F490818406B0121A9400140002910D1DD
:102A60003C2060432A490818406B0121A9400143DA
:102A70003C206043264A101841630121280000F0E1
:102A800059FD6D1C03F088F98542B6D370BD000076
:102A90005C12001038B504003C2060431C49081843
:102AA0003C2161431A4A5118896A41623C206043C3
:102AB00017490818406A3C216143154A5118081803
:102AC000203005782900C9B2200003F01BFE12480F
:102AD0000555124800680121A14001430F480160DB
:102AE000EDB2002D03D100212000FFF781FFEDB2F0
:102AF000012D03D101212000FFF77AFF2000FFF70D
:102B00003AFA31BD7812001040420F00212B00002C
:102B10006C00001018110010081100106012001055
:102B200070B5A1480068002800D019E204F011F93E
:102B3000002800D114E2002537E03C2068439B497F
:102B40000818406A3C216943984A511808182030F7
:102B500000783C216943954A5118896A3C226A43AE
:102B6000924B9A185118203109782A00C9B2C0B284
:102B7000FFF700FF04003C2068438C490818C06A36
:102B800002F092FFA04206D23C2068438749081811
:102B9000806B002808D02800FFF77CFF3C206843AA
:102BA00082490818002181636D1C03F0F2F8854208
:102BB00036D23C2068437D4908580021C9438842E9
:102BC000F2D004206843C14909582800FFF74AFEA3
:102BD0003C216943754A5118896A81420BD03C21D6
:102BE0006943724A5118886202F05BFF3C216943D5
:102BF0006E4A5118C8623C2068436C490818806AC4
:102C00003C216943694A5118496A8842CCD03C202A
:102C1000684366490818406AFF288ED1FF2098E76C
:102C2000002400250FE0C2480078C12101400122A4
:102C3000AA40D3435A0002403E2010400843BC49FA
:102C4000087001246D1C0B2D00D373E103F0CCFA46
:102C5000062D07D03BD3082D0ED008D30A2D23D044
:102C60000FD334E01B21002003F0F4FE32E00621F4
:102C7000012003F0EFFE2DE01321002003F0EAFE17
:102C800028E0C0B2012805D0C0B2022802D0C0B2EC
:102C9000032808D103F08CFB012801D1012000E0BA
:102CA0000020C0B216E0CDE7C0B2012805D0C0B206
:102CB000022802D0C0B2032808D103F09DFB0128EE
:102CC00001D1012000E00020C0B203E0BAE72800F3
:102CD000FDF790FA0028B5D418216943A14A51188C
:102CE0004969814212D0182169439E4A51184861AE
:102CF000052D04D202F0D5FE9A49C86006E002F024
:102D0000D0FE18216943974A5118C86018206843BB
:102D100094490818406918216943924A5118096971
:102D200088428FD00026052D02D28E48466804E0E6
:102D3000182068438B4908184668072D0CD11820C5
:102D40006843884908180069002805D1182068439D
:102D500084490818806836180020052D04D281485F
:102D6000C06802F0A1FE06E0182068437D490818FB
:102D7000C06802F099FEB04200D263E718206843B1
:102D80007849081818216943764A51184969016140
:102D9000062D00D19CE000D2B1E0082D2CD007D345
:102DA0000A2D6FD04AD3AAE0681200106C00001000
:102DB0005F480178FE20084018216943694A51188C
:102DC000097C0A00D207D20F0243594802706648B4
:102DD0000068802109060143634801606348006878
:102DE000002808D0524800780100C907C90F072001
:102DF0005E4A1268904725E74D4800784006400E2D
:102E000018216943574A51180969C90101434848C3
:102E1000017055480068802109050143524801604E
:102E200052480068002808D0414800780100C9B223
:102E3000C90908204D4A1268904703E73C48417889
:102E4000FE20084018216943464A5118097C0A00AF
:102E5000D207D20F024336484270434800688021AF
:102E6000C90401434048016040480068002808D078
:102E70002F4840780100C907C90F09203B4A126852
:102E80009047DFE62A484178FD2008401821694331
:102E9000344A51180969490002221140014324486B
:102EA0004170314800688021890401432E48016047
:102EB0002E480068002808D01D4840780100890786
:102EC000C90F0A20294A12689047BBE66C0F001010
:102ED00017480178BF20084018216943214A51183A
:102EE00009698901402211400143114801701E48BF
:102EF00000688021C90501431B480160A2E6052D39
:102F000000D39FE61820684316490818007CC007C4
:102F100000D588E606480078C12101400122AA4078
:102F2000520002433E20104008430149087088E6E1
:102F30005C120010002C13D00B480068802149055A
:102F40000143094801600A480068002808D0094880
:102F50000078C0B24008C006C00E0549096888471D
:102F600070BD0000FC06001060120010741200100A
:102F7000781200105C1200108F49086070478F496A
:102F80000860704780B58C4A1268002A09D08C4AC4
:102F90001268012383401340002B02D0864A126836
:102FA000904701BD80B5854A1268002A09D0854A3C
:102FB0001268012383401340002B02D07F4A12681D
:102FC000904701BD80B5242141437F4A5118CA6909
:102FD0001100C906C90FFFF7E5FF01BD38B50400B0
:102FE00000251BE0764800680121A9400143744890
:102FF00001602420684374490818C169080000066C
:10300000C00F24216943704A5118CA69110089060A
:10301000C90F41402800FFF7B5FF6D1C202D0AD2D3
:103020000120A84020400028F7D002F0B5FE8542DC
:10303000D8D3022000E0002032BD80B560490022D4
:103040000A60FFF7CBFF02BD38B50400002507E09A
:103050005B4800680121A9408843594908606D1CFC
:10306000202D0AD20120A84020400028F7D002F0ED
:1030700093FE8542ECD3022000E0002032BD38B53B
:103080000400002512E04F4800680121A9400143D7
:103090004C480160242068434B490818C06901006E
:1030A000C906C90F2800FFF77DFF6D1C202D0AD22D
:1030B0000120A84020400028F7D002F06DFE854294
:1030C000E1D3022000E0002032BD80B53D4900225E
:1030D0000A60FFF7D4FF02BD38B50400002507E001
:1030E000384800680121A9408843364908606D1CB2
:1030F000202D0AD20120A84020400028F7D002F05D
:103100004BFE8542ECD3022000E0002032BD38B5F2
:10311000040002F041FE844202D30020C04328E0B4
:103120002420604328490818C06901000906C90F16
:1031300024206043244A1018C0690500AD06ED0F35
:103140004D40042C0CD228000100C907C90F0122F0
:103150004A40D2B221000E31002003F05DFC03E0B2
:103160002900201F03F0F3F829002000FFF70AFFD1
:10317000002032BD38B50400BB48002101600025A5
:103180000AE0280000F0BDF8B74800680121A94016
:103190000143B54801606D1C202D0AD20120A840D2
:1031A00020400028F7D002F0F7FD8542E9D3022045
:1031B00000E0002032BD0000881200108C120010C8
:1031C0007C120010801200102C04001010B5042096
:1031D00002F091FD002406E0012221000E310020C2
:1031E00003F0CFFB641C042CF6DB002473E02420E6
:1031F0006043CF4900220A5024206043CC4908187C
:10320000FA218900416024206043C9490818FA2145
:103210008900816024206043C5490818002141616C
:1032200024206043C24908180021816124206043A2
:10323000BF4908180021C16024206043BC49081818
:10324000C0690321884324216143B94A5118C861E8
:1032500024206043B6490818C0690C218843242102
:103260006143B34A5118C86124206043B04908182B
:10327000C0691021884324216143AD4A5118C861B7
:1032800024206043AA490818C069202188432421CA
:103290006143A74A5118C86124206043A449081813
:1032A000C0694021884324216143A14A5118C86163
:1032B000242060439E490818C06980218843242146
:1032C00061439B4A5118C8612420604398490818FB
:1032D00000210162641C02F05FFD844287D3002458
:1032E00003E02000FFF713FF641C02F055FD844249
:1032F000F7D3C748002101600521C64802F036FC1B
:1033000010BD10B5040002F047FD844201D3022035
:1033100015E02420604386490818C06910218843BD
:1033200024216143824A5118C861242060438049A6
:103330000818002101622000FFF7E9FE002010BDFF
:1033400010B5002400E0641C02F026FD844205D282
:103350002000FFF7D6FF0028F5D000E0002010BDC8
:10336000F8B504000F0015001E0002F015FD8442A0
:1033700002D30020C04325E0242060436C49002292
:103380000A50242060436A4908184761242060439A
:103390006749081885612420604365490818C06999
:1033A00020218843710120221140014324206043E1
:1033B0005F4A1018C1612000FFF7A9FE2000FFF747
:1033C00001FE0020F2BDFEB50400089F099D0A9E83
:1033D00002F0E2FC844202D30020C04342E02420F9
:1033E0006043534901220A50242060435049081881
:1033F00000994160242060434D490818019981607B
:10340000242060434A4908180299416124206043FE
:103410004749081887612420604345490818C06956
:1034200040218843A90140221140014324206043E8
:103430003F4A1018C161242060433D490818C06903
:103440002021884371012022114001432420604340
:10345000374A1018C1612000FFF759FE2000FFF71E
:10346000B1FD0020FEBD000084120010F7B504007D
:103470001F00089D099E02F08FFC844202D30020A9
:10348000C0433CE024206043294902220A50242002
:10349000604327490818019941602420604324496A
:1034A0000818029941612420604321490818876166
:1034B000242060431E490818C06940218843A9019F
:1034C00040221140014324206043194A1018C16171
:1034D0002420604316490818C069202188437101DF
:1034E00020221140014324206043114A1018C16179
:1034F0002000FFF70CFE2000FFF764FD0020FEBD5A
:1035000038B505000C0002F047FC854202D30020CC
:10351000C0430CE024206843054908184069A042D4
:1035200004D224204543024840194461002032BDA2
:103530002C04001038B505000C0002F02DFC85426B
:1035400001D3022061E0E0070BD524206843A249A3
:103550000818006A401C242169439F4A51180862D8
:103560000AE0242068439C490818006A401E242170
:103570006943994A511808622420684396490818FB
:10358000006A002805D524206843934908180021C3
:1035900001622420684390490818C1690800C006E8
:1035A000C00F242169438C4A5118096A012901DBA3
:1035B000012100E0002124226A43874B9A18D26936
:1035C00010239A43C9B20901114324226A43824B52
:1035D0009A18D161242169437F4A5118C9690A00A8
:1035E000D206D20F82420AD0242068437A490818B2
:1035F000C0690100C906C90F2800FFF7D3FC2800E5
:10360000FFF785FD00F0EAF8002032BD0000000061
:1036100088120010DD370000242148436E49081845
:10362000C1690800C006C00F704710B5040024200F
:10363000604369490818007F8007800F002806D082
:10364000022868D036D3032800D193E0C2E02420BA
:10365000604361490818C069C0062AD52420604328
:103660005D4908184069002815D0242060435A4954
:103670000818C069032188430121014324206043C5
:10368000554A1018C16102F00CFA24214C435249EA
:103690000919C8600DE0242060434F490818C0692B
:1036A0000321884302210143242044434A4800194E
:1036B000C1618FE02420604347490818C069C006F3
:1036C0001CD52420604344490818C06802F0ECF976
:1036D00024216143404A5118496988421AD3242061
:1036E00060433D490818C069032188430221014312
:1036F0002420444338480019C1610BE02420604372
:1037000035490818C0690321884324214C433249B4
:103710000919C8615EE0242060432F490818C06978
:10372000C00626D4242060432B490818806900284D
:1037300013D02420604328490818C069032101439D
:1037400024206043244A1018C16102F0AAF9242100
:103750004C4321490919C8600BE0242060431E49ED
:103760000818C0690321884324214C431A490919C8
:10377000C8612FE02420604317490818C069C006BB
:103780001AD42420604314490818C06802F08CF948
:1037900024216143104A5118896988421AD3242090
:1037A00060430D490818C0690321884324214C4314
:1037B00009490919C8610DE0242060430649081829
:1037C000C069032188430221014324204443024865
:1037D0000019C16110BD00002C04001038B5002490
:1037E0000AE0287F8007800FC0B2002803D1E86973
:1037F0000C218843E861641C02F0CEFA844200D3B5
:1038000016E12000FFF711FF2420604389490D18BD
:103810002868002804D0022800D1C3E051D3EAE789
:10382000E86980088007800F002833D0012802D083
:10383000032812D044E0287F8007800FC0B2002800
:103840000AD1E8690C218843E861E869802188434E
:10385000E8612000FFF75BFC32E0287F8007800FE3
:10386000C0B2022805D0287F8007800FC0B203288D
:103870000FD1E8690C21884304210143E961E8691B
:1038800080210143E96102F00CF928612000FFF773
:103890003EFC15E0287F8007800FC0B202280FD1C0
:1038A000E8690C21884304210143E961E86980212A
:1038B0000143E96102F0F5F828612000FFF727FCD9
:1038C00099E7E86980088007800F002804D0012864
:1038D00019D003283DD064E0287F8007800FC0B254
:1038E00002280FD1E8690C21884304210143E961D2
:1038F00002F0D7F82861E86980210143E9612000DE
:10390000FFF705FC4DE0287F4321014040290BD102
:10391000E8690C218843E861E86980218843E8610F
:103920002000FFF7F4FB3CE0286902F0BDF869686D
:1039300088420DD302F0B5F82861E8690C210143F3
:10394000E961E86980218843E8612000FFF7DFFB37
:1039500027E0287F8007800FC0B200280BD1E869DC
:103960000C218843E861E86980218843E8612000F0
:10397000FFF7CDFB15E0286902F096F8A9688842A8
:103980000FD302F08EF82861E8690C2188430421E6
:103990000143E961E86980210143E9612000FFF703
:1039A000B6FB28E7E86980088007800F002805D06B
:1039B00001281AD0032800D113E71CE7287F8007CD
:1039C000800FC0B202280FD1E8690C21884304217E
:1039D0000143E96102F065F82861E869802101434B
:1039E000E9612000FFF793FB05E7287F43210140B1
:1039F00040290BD1E8690C218843E861E8698021FE
:103A00008843E8612000FFF782FBF4E6286902F0B2
:103A10004BF8696888420AD3E8690C210143E961DF
:103A2000E86980218843E8612000FFF770FBE2E647
:103A300031BD00002C04001000B50100002917D092
:103A4000002100E0491C032912DA04224A43504BAA
:103A50009A5803009A4205D004224A434C4B9A5884
:103A6000002AEFD104225143494A5050012000E07E
:103A7000002000BD00B50100002917D0002100E0A2
:103A8000491C032912DA04224A43424B9A58030084
:103A90009A4205D004224A433E4B9A58002AEFD15D
:103AA000042251433B4A5050012000E0002000BD59
:103AB00000B50100002917D0002100E0491C0329AE
:103AC00012DA04224A43344B9A5803009A4205D032
:103AD00004224A43304B9A58002AEFD10422514322
:103AE0002D4A5050012000E0002000BD00B501002B
:103AF000002917D0002100E0491C032912DA042212
:103B00004A43264B9A5803009A4205D004224A435E
:103B1000224B9A58002AEFD1042251431F4A505099
:103B2000012000E0002000BD00B5002801D00328DE
:103B300001D3002004E050214843AD490818503813
:103B400000BD000070B504000E00002C01D1002063
:103B50001CE0E068B04202D100BF002016E0E66041
:103B60000B48002811D000250DE0042068430849C7
:103B70000858002806D03100200004226A43044B74
:103B80009A5890476D1C032DEFDB012070BD00009B
:103B900058110010701100107C11001088110010D5
:103BA00010B50400002C25D00020206200206062A7
:103BB0000020A0620020E0620020206300206063FB
:103BC000002060610020A0610020C043E06100206F
:103BD000A06000290ED100212000FFF7B3FFE06BA9
:103BE000002804D0E06BFCF7A2FA0020E0636068D4
:103BF00003F066F910BD80B500281AD002688A4229
:103C000017D002680160002905D0022911D00AD31B
:103C1000032904D00DE00021FFF7C2FF09E00121D4
:103C2000FFF790FF05E0002A02D00021FFF7B8FF60
:103C3000FFE701BDF2B582B0070014001E00002EA0
:103C400001D1002402E0612C00D30024200003F005
:103C500011FA0500002D01D100200EE06F706846BA
:103C6000007AE870002C07D00094AB782A00121D6F
:103C70002100300001F0CEFD2800FEBDF1B586B078
:103C80000D0014001F00EDB2FE2D01D10020ACE0AC
:103C90000698FFF749FF002802D100BF0020A4E0EA
:103CA000EDB2792D0ED13988C2698A4209DB00BF95
:103CB000504A1268521C4F4B1A60C0690918012003
:103CC00093E0C161EDB22900323967D0491E49D075
:103CD0002939022937D9491F75D09C3974D1200060
:103CE000801E5F2801D300207FE038780490049D77
:103CF0006D1C01200390002601E000BF761C049893
:103D000086421ED2B8194078029002980128F4DB4E
:103D100002982818844212D30D9801900C980090B4
:103D20007B195B1C029A521E795D0698FFF7A6FF6D
:103D3000002801D10020039002982D18DEE7002012
:103D40000390039851E00022D243002C00D03A782F
:103D50002900C9B200F00DFA002801D1002044E08A
:103D6000012042E00D2C01D200203EE00022002183
:103D70000BE0431840331B787C5CA34204D0012243
:103D8000431840337C5C1C70491C0D29F1DB002A70
:103D900002D000F0AFF928E0012026E0022C01D289
:103DA000002022E07978826B914201D0012100E06D
:103DB0000021C9B2002904D07978816300F0B2F9FA
:103DC00013E0012011E000BF3B0022002900C9B22E
:103DD0000698FFF72FFF0100002901D1002004E021
:103DE0000D9B0C9A069803F092F807B0F0BD000006
:103DF000B40C001044120010F2B584B00500039515
:103E000000270498401B0399441892480068002832
:103E100004D0022800D1AAE01FD314E10020C0433F
:103E2000002100E0491CA14210DA6A5CFF2AF9D1A6
:103E30000800884901220A60874905220A60211A80
:103E4000491E012902DB2D186D1C01270021C943E1
:103E5000884201D10020FAE0F5E07F48006801289F
:103E600020D07AD3032815D018D3052801D00DD33C
:103E700073E02878401EC0B20F2803D27748297813
:103E8000017002E073480021016066E07348297800
:103E9000417062E07148297881705EE0287870494D
:103EA00008605AE028786F4908606C48407801281B
:103EB0000BD36A484078612807D2684840786A493D
:103EC000086064480221016047E062480021016007
:103ED000012662480078FFF727FE002803D0406AD9
:103EE000032800D30026002000900020002E16D0CA
:103EF0005A480078594949784018584989784018F3
:103F00000221484380B257490968554A1268120293
:103F1000891889B288421DD1012000901AE06846B4
:103F20004E490978017202A84C494978417002A8AB
:103F30004A498978817002A849490968C1700422F8
:103F4000002102A8FCF762F946490968884201D1BC
:103F500001200090009800F0A5FC3F480068401E3A
:103F60003D490860022C01DB6D1C01276BE03B48DA
:103F700040783D490968401A384908182978C170C5
:103F800039480068401E38490860374800680028F2
:103F900055D13048002101600126002000902F48B3
:103FA0000078FFF7C1FD002807D0406A032804D33A
:103FB0002A488078962800D00026002E21D0274855
:103FC000007826494978401824498978401800210A
:103FD00004E0224A5218D2788018491C1F4A5278AD
:103FE0009142F6DB0221484380B21E4909681C4A0F
:103FF00012681202891889B288421DD101200090EE
:104000001AE0684615490978017101A813494978F1
:10401000417001A811498978817001A81049096887
:10402000C1700422002101A8FCF7F0F80D490968CD
:10403000884201D101200090009800F033FC022C4E
:1040400001DB6D1C0127002F00D0D9E6002005B050
:10405000F0BD00002012001030120010600E0010A1
:10406000281200102C120010341200101CB504008D
:10407000200002F017FF002809D100200190002045
:1040800000900023002201212000FFF7F7FD13BD5F
:104090001CB50400002C02D0A068002801D000202C
:1040A00027E068463021017068460221417001F026
:1040B00011FD02F0EEFF6946887001F013FD02F079
:1040C000E8FF6946C87001F019FD02F0E2FF694699
:1040D00008716B46052230216068FFF7ABFD0100D7
:1040E000002901D1002004E000230022606802F0D2
:1040F0000EFF16BD10B50400002C01D1002010E009
:10410000230040330D2233216068FFF793FD002820
:1041100001D1002005E0002300220100606802F0C8
:10412000F6FE10BD10B582B0040068460021017093
:10413000A06B694648706B46022232216068FFF727
:1041400079FD002801D1002005E0002300220100B4
:10415000606802F0DCFE16BD00B5002801D1002029
:1041600006E00068032801D1012000E00020C0B271
:1041700000BDF0B587B005001400002D02D0E8683E
:10418000002801D1002015E105A800220280C9B253
:10419000480604D4C9B250200840502801D101205B
:1041A00000E00020C0B200260F000123C9B25C2944
:1041B00005D0C9B25D2902D0C9B25E2906D1012657
:1041C0005221012C02DB220600D50023002C12D440
:1041D00000280BD0684603220275002E01D0012270
:1041E00011E005A82200427002220CE0684622007D
:1041F0000275012207E0002804D0684603220275F8
:10420000012200E000220020002B13D005ABC9B230
:104210006868FFF70FFD002801D10020CAE00023E5
:1042200000220100686802F072FE002E01D0002812
:1042300000D1BFE0FFB2523F06D00A3F012F15D98F
:10424000BF1E00D193E0B4E00020049080200390D2
:104250000020029000200190002000900023002206
:104260008021280000F0B7F80120A3E02600F6071F
:10427000F60F012C1BDBA00719D5002E0BD00F2049
:10428000009006230F220621280000F0F7F80028EE
:104290000DD100208EE00F20009006230F22062172
:1042A000280000F0EBF8002801D1002082E0012C6A
:1042B0001BDB600719D5002E0BD0052000909E4B0C
:1042C0000E220021280000F03BF900280DD100202B
:1042D00070E004200090994B0E220021280000F08D
:1042E0002FF9002801D1002064E0012C2DDB2006ED
:1042F0002BD5200714D5002E01D0012000E000208E
:10430000002104918021039102900220019001205C
:104310000090042300228021280000F05CF824E0B3
:10432000002E01D0012000E0002000210491802116
:1043300003910290022001900020009000230022AF
:104340008021280000F047F80FE000200490802032
:10435000039000200290002001900120009004238F
:1043600000228021280000F036F8012022E00F20F2
:10437000009007230F220721280000F07FF8002873
:1043800001D1002016E0012C11DB20060FD5002002
:1043900004908020039001200290022001900020D0
:1043A0000090802300228021280000F014F80120D2
:1043B00000E0002007B0F0BD38B50C001500FFF795
:1043C000B3FB002801D1002004E02A002100C9B27B
:1043D000FFF7CFFE32BDFEB584B004000E9F0F9DE7
:1043E000109E2000FFF7B8FE002801D100202AE02F
:1043F000200000F0E1FD002801D1012023E0606AE7
:10440000032801D201201EE068460499017202A827
:104410000599417002A80699817002A80C99C17093
:1044200002A80D99017102A8477102A8857102A81E
:10443000C671002001900020009002AB08222B21C1
:104440006068FFF71BFC07B0F0BDFEB586B00F9F9C
:10445000109C119D129EFFF767FB002801D10020E0
:104460000AE004960395029401970E990091089B27
:10447000079A0699FFF7AFFF09B0F0BDF1B584B018
:104480000F0014001D000A9E0498FFF765FE002827
:1044900001D100201EE03801694608726846007AA2
:1044A0002107090F01436846017202A831014170DA
:1044B00002A840782907090F014302A84170002093
:1044C00001900020009002AB022261210498406814
:1044D000FFF7D4FB05B0F0BDF8B50F0014001D00C8
:1044E000069EFFF721FB002801D1002009E0F6B26B
:1044F00000962B00DBB22200D2B23900C9B2FFF71E
:10450000BDFFF2BD10B584B004002000FFF724FE0B
:10451000002801D100200DE002A8A7490A78027006
:10452000002001900020009002AB0122222160684F
:10453000FFF7A4FB04B010BDFCBD000004BE0000EA
:10454000F1B58AB00E0014001F00109D0A98FFF705
:1045500003FE002801D1002026E0002F01D0002D0D
:1045600001D1002020E01D2D00D31C2530012107A2
:10457000090F01436846017202A801214170002021
:1045800004E002A909183A5C8A70401CA842F8D3DA
:10459000002001900020009002ABAD1C2A002621D3
:1045A0000A984068FFF76AFB0BB0F0BD10B5040035
:1045B0009948C0780100090603D50121A161400690
:1045C000400E02F07AFD60629348007902F075FDBA
:1045D000A06291484078032814D38F48407902F0B4
:1045E0006CFDE0628C48407804280BD38A488079BF
:1045F00002F063FD206388484078052802D386488E
:10460000C07960632068002802D001280BD00EE03A
:104610000020606101212000FFF7EDFA7E4800785C
:10462000FFF724FD03E07C480078FFF71FFD10BD75
:1046300010B504009748C07802F03FFDE06295484D
:10464000007902F03AFD2063924840796063606827
:10465000FFF70CFD10BD80B50168012902D00121D2
:10466000FFF7C9FA8B480078FFF700FD01BD7CB564
:104670000600F06B002862D000240125F06BC078A2
:10468000302804D032280CD0332832D039E03068BA
:10469000032803D03000FFF745FD01E00124002589
:1046A0003AE03068032803D03000FFF723FD1FE015
:1046B0000020019000200090002300223F21754837
:1046C0000078FFF7DBFA7448002810D000250CE0D2
:1046D0000420684370490858002805D030000421A0
:1046E00069436D4A515888476D1C032DF0DB002546
:1046F00012E03068032801D0012401E001240025E4
:104700000AE03068022806D03000FFF7C1FC00281C
:1047100002D1012400E00124002C0AD000200190E5
:1047200000200090002300223F215A480078FFF724
:10473000A5FA002D03D002213000FFF75CFA73BD0B
:1047400070B50400002C18D033484078002814D0ED
:104750003148C67800250EE0042068434F490858C8
:10476000002807D0F6B23100200004226A434B4BE8
:104770009A5890476D1C032DEEDB70BDF8B505000F
:10478000002D16D0002412E004206043444908584C
:1047900000280BD0204843781F4AD21C1E4881783D
:1047A0002800042666433E4FBE59B047641C032CC4
:1047B000EADBF1BD000000003C7100001CB5040004
:1047C00034484078012801D33248C0782068012855
:1047D00002D0022809D01DE002212000FFF70BFAC9
:1047E0002C480078FFF742FC14E0606B00280AD1E7
:1047F0000020019000200090002300220321606827
:10480000FFF73CFA06E003212000FFF7F4F96068A7
:10481000FFF72CFC13BD0000600E001010B5040063
:1048200020680028012802D9C01E0BD030E00120EA
:10483000A06103212000FFF7DEF9A3480078FFF70D
:1048400015FC25E0A06900280DD101212000FFF70B
:10485000D2F90120A06103212000FFF7CCF99A488A
:104860000078FFF703FC98484078012810D3E06BEC
:10487000007840280BD09448C078FA2803D1E06B28
:104880000078802804D12000FFF778FF00E000BF07
:1048900010BD0000600E001088110010641100109F
:1048A0007011001030B583B00400002087490968FA
:1048B000FE22D243914212D183480078844909688C
:1048C00088420CD18348006801F0EEF882490968FB
:1048D000884206D301F0E5F87C490860ECE000BFAF
:1048E000EAE001F0DEF879490860002C0BD10020E5
:1048F00001900120009000230022022174480068EA
:10490000FFF7BCF9D8E070480078FFF70DF9040014
:10491000002C00D1D0E0002020622068002803D0C5
:1049200002281ED00DD335E067488078962807D03E
:1049300001212000FFF75FF963480078FFF796FB3D
:1049400028E0614880788138012804D9113804288A
:1049500001D9663800D103E05B480078FFF786FB99
:1049600018E0594880788138012805D90F38012886
:1049700003D9801E042805D80CE053480078FFF7BF
:1049800075FB07E003212000FFF735F94E4800785A
:10499000FFF76CFB4C488078812818D082281AD009
:1049A00090284CD0912853D0922834D0932836D0D8
:1049B00094282CD0962826D0A0283CD0A12832D0EC
:1049C000A22834D0A3286DD0F82818D071E0200098
:1049D000FFF7F4FE70E0E06B00280BD0E06B4021A5
:1049E000017000230122E16B606802F090FA002060
:1049F000E06303E034480078FFF738FB5CE0200018
:104A0000FFF70CFF58E02000FFF7D0FD54E0200036
:104A1000FFF70EFE50E02000FFF71DFE4CE02000E7
:104A2000FFF725FE48E02000FFF7A8FE44E0200045
:104A3000FFF7A4FE40E02000FFF7A0FE3CE0606925
:104A4000002804D1012060612000FFF797FE33E0C9
:104A50006069002825D000206061E06800281DD032
:104A60002068032809D10020019001200090002334
:104A700000223F216068FFF701F900250CE00420C7
:104A800068439E490858002805D020000421694346
:104A90009A4A515888476D1C032DF0DB2000FFF720
:104AA0006DFE09E02000FFF74BFE2000FFF766FED9
:104AB00002E02000FFF762FE37BD80B5B54A012154
:104AC000012002F059FD01BD600E00102000001011
:104AD000401200103C12001038120010F1B59AB0CC
:104AE0000C00002C02D01A98002800D104E16620A6
:104AF000A678B61DB04205D200BF801EB04200D2DB
:104B000000BFF9E06846FF21017068466178417096
:104B10006846A17881706846E178C170A078012864
:104B20000AD3002005E0211809796A46121891710C
:104B3000401CA1788842F6DB01201A99496A0329B2
:104B400003D3E178042900D00020002819D0607830
:104B5000A1784018E1784018A178012908D30021F4
:104B600003E0621812798018491CA2789142F8DBA0
:104B7000022148430100090A6A46117169464871D9
:104B800014E06846E3210171A078012807D3A278D8
:104B900000212000001DFBF739FB69460871042243
:104BA00001216846FBF732FB69464871E078401EF8
:104BB0000ED0C01E25D022381FD00D3814D02D386D
:104BC000012816D90938012827D9103829D02DE015
:104BD0009C480068800703D59B483C21016002E0A7
:104BE0009948282101602CE09748C82149000160BC
:104BF00027E09548C821016023E0934864210160C3
:104C00001FE090480068800703D58F483C21016071
:104C100002E08D482821016013E08B489621016055
:104C20000FE089489621490001600AE08548006844
:104C3000800703D584483C21016002E08248282196
:104C40000160012002F0E6FA96218901884210D025
:104C50009621C90188420ED09621090288420DD0C2
:104C6000E121090288420BD0E1214902884209D0A2
:104C70000AE0B24D09E0FF25A23506E0D02504E0A8
:104C80008B2502E0462500E0AD4D75432800FA2152
:104C9000890002F07DFE002901D0012700E00027F5
:104CA0002800FA21890002F073FEC51900F0F9FE10
:104CB000070032006946012002F06EFB380000F068
:104CC000F3FE060000F0EDFE9E490860AE4205D2FC
:104CD0005D4800684019801B5B4908601A98C06BEA
:104CE000002803D01A98C06BFBF721FA1A98C46306
:104CF0001A984068A84908601BB0F0BD7C110010EC
:104D000010B5A6480068FE21C943884240D18D48AD
:104D1000006800F0C9FE4C490968884238D39E48B3
:104D20000068FEF701FF0400002C01D100BF2FE056
:104D3000E06B00282CD0E06BC078102804D1002153
:104D40002000FEF758FF1FE0E06BC078042804D174
:104D500000212000FEF74FFF16E0206A0A280FD23C
:104D6000206A401C2062E06B802101700023012238
:104D7000E16BE06B407802F0CAF80020E06303E0EA
:104D800000212000FEF737FF84480021C94301605D
:104D900010BD0000F93D000010B582B00F24294875
:104DA0000068800700D528247C4800680021C9439A
:104DB000884209D079480068002841D477480068C3
:104DC00000F072FEA0423BD373480068022801D174
:104DD000012002E070480068401CFEF7A5FE0400B8
:104DE000002C01D100BF2BE0606802F007F9010040
:104DF00000291CD12068002802D003280ED016E01C
:104E00006846032101706846002141706B4602220A
:104E100004216068FEF70EFF010008E0002906D1BA
:104E20000023002201216068FEF704FF0100002931
:104E300006D02000FFF752FE5848FE21C94301600A
:104E400013BD0000241200103812001010B5544891
:104E50000068C00771D41B21002001F0FBFD040095
:104E60001B21002001F0F6FD0400002C07D4002CCB
:104E700005D14B4800680221014349480160484878
:104E80000068800705D596214901012002F069FCE0
:104E900004E096210902012002F063FC002412E0E4
:104EA000502161433F4A511809184031FF220A70CE
:104EB000401C0D28F4DB012150206043394A1018B2
:104EC000FEF76EFE641C022C25DA50206043354943
:104ED00009182000401C48605020604331490818E0
:104EE0000021C160502060432E4900220A5050200A
:104EF00060432C4908180021C163502060432949B0
:104F000008180021816350206043264908180121B8
:104F100001610020CDE70A21234800F027FE092186
:104F2000224800F023FE0A21214800F01FFE1C4801
:104F30000068012101431A48016010BD8D20000066
:104F40001B4100003C12001070B5002405E000BFBA
:104F5000F068002800D000BF641C022C1BDA50202F
:104F6000604310490E18F0680028F0D0306900281E
:104F7000EDD00025032DEFDA042068430D490858D1
:104F8000002806D0F168300004226A43094B9A5881
:104F900090476D1CEEE770BD40120010200000101D
:104FA00024120010B40C0010994D0000BB4A000000
:104FB000014D00005811001000B5002801D100205B
:104FC0001BE0406B253815D0C01E012812D91D38B2
:104FD00001280FD9C01E01280CD910380AD0483832
:104FE00008D0103806D01038012803D9103801D065
:104FF000123801D1012000E0002000BDBD49086049
:105000007047BD4908607047BC4908607047BC499B
:105010000860704710B582B0002404E0B948001958
:10502000FF214170641C052CF8D3002404E0B5482E
:105030000019FF218171641C032CF8D3002404E0C3
:10504000B0480019FF21C172641C032CF8D300245E
:1050500004E0AC480019FF214172641C022CF8D313
:10506000002000900023BA4ABA49B94800F079FA02
:10507000A4487030007801210143A24870300170CB
:10508000A0480078FE2101409E48017001220121C4
:10509000012000F032FA00242CE0202060439949DE
:1050A000081800214161202060439649081800211A
:1050B000816120206043934908180021C943C161E0
:1050C000202060438F49081800214162202060435E
:1050D0008C49081800218162202060438949081802
:1050E000C06AFBF724F82020604386490818002195
:1050F000C162641C022CD0D313BD10B58148007866
:10510000C00701D51A2037E0002409E07D480019C6
:105110004078FF2803D02000C0B200F0D5F9641C0D
:10512000052CF3D3002409E0764800198079FF2884
:1051300003D02000C0B200F0E7F8641C032CF3D3C6
:10514000002409E06F480019C07AFF2803D020002E
:10515000C0B200F059FA641C032CF3D3002408E019
:1051600068480019407AFF2802D0200000F04BF870
:10517000641C022CF4D3002010BDFEB504000D0009
:105180001600099F5F480078C00701D51A2039E052
:1051900000F0FFFD854201D3022033E059488430FE
:1051A00000680121A9400140002906D05548001996
:1051B000407AA84201D0032024E05248843000689D
:1051C0000121A94001434F48843001604D48001936
:1051D00029004172002E08D1029800903B00089AE5
:1051E00000212800FDF78AF80BE0012E09D1029872
:1051F0000190002000903B00089A00212800FCF755
:10520000D1FF0020FEBD00B53E490978C90701D590
:105210001A2017E03B490918497AFF2901D10020DB
:1052200010E03849843109680122364B1B185B7A3B
:105230009A409143334A8432116032490818FF2161
:105240004172002000BD2F4970310978FE220A40CA
:105250000100C907C90F11432A48703001700020AE
:105260007047FEB504000D001600099F2548007820
:10527000C00701D51A203BE000F08BFD854201D329
:10528000022035E01F48843000680121A940014018
:10529000002907D0E4B21B4800198079A84201D048
:1052A000032025E01748843000680121A94001430C
:1052B000144884300160E4B2124800192900817159
:1052C000002E08D1029800903B00089A0021280087
:1052D000FDF714F80BE0012E09D10298019000208F
:1052E00000903B00089A00212800FCF75BFF00209B
:1052F000FEBD000004130010081300100C13001072
:1053000010130010540D001000B5BE490978C907EC
:1053100001D51A201AE0C0B2BA4909188979FF29C3
:1053200001D1002012E0B749843109680122C0B2DE
:10533000B44B1B189B799A409143B24A8432116056
:10534000C0B2B0490818FF218171002000BD0000E3
:1053500088130000204E0000FCB583B005000C004F
:105360000A9F0B9EA7480078C00701D51A206DE060
:1053700000F012FD844201D3022067E0EDB2002D5F
:105380000AD0EDB2012D07D0EDB2022D04D0EDB25E
:10539000032D01D0062059E06846007B012804D186
:1053A0000498002801D1042050E09648406F012164
:1053B000A1400140002907D0EDB292484019407841
:1053C000A04201D0032041E08E48001978300078D7
:1053D000002801D0032039E08A48406F0121A14014
:1053E000014388484167EDB2864840192100417069
:1053F00084484079FF2802D1322E00D232268148DB
:10540000066680480C9941666846007B002802D0F9
:10541000012809D019E03B007A48426E7948016EB4
:105420002000FDF79DFF10E07648436E7548026E40
:105430000498002801D0049901E0FA21890001971D
:10544000012000902000FEF711F8002005B0F0BD0B
:1054500010B5040000F0A0FC844201D3022032E029
:1054600068480078C00701D51A202CE06548406FD5
:105470000121A1400140002905D062484079A042A5
:1054800001D003201FE05F48001978300078002821
:1054900001D0032017E05B48406F0121A140014388
:1054A0005848416757484471002409E0554800199D
:1054B0004078FF2803D032212000FEF721F8641C39
:1054C000042CF3DB002010BD00B54E490978C90754
:1054D00001D51A2010E04B49496F0122C0B2494B57
:1054E0001B185B789A409143464A5167C0B24549C0
:1054F0000818FF214170002000BD70B506000C00A7
:105500001500B7480068002805D02A0021003000A7
:10551000B34B1B6898473B4888300078FB2101401B
:10552000B0000422104008433649883108703548DD
:1055300088300078F7210140E0000822104008433D
:105540003049883108702F4888300078EF210140B9
:1055500028011022104008432A4988310870002091
:1055600070BD30B4029C274D28652648416525480A
:1055700082652448C3652348C466002030BC704758
:1055800038B505000C0000F007FC844201D302206E
:1055900036E0EDB2032D01D3052031E01948406F0C
:1055A0000121A1400140002901D0032028E0EDB2F3
:1055B00014484019C07AA04201D1002020E0EDB289
:1055C00010484019C07AFF2803D02800C0B200F06C
:1055D0001BF80C48001978300078401C094909195B
:1055E00078310870EDB207484019C47286480068E7
:1055F000002804D02800C0B28349096888470020E9
:1056000032BD0000540D001010B50400E4B2032CAC
:1056100001D3052027E0E4B27C480019C07A7B4919
:1056200008187830007801280ED3E4B277480019C2
:10563000C07AC0B27549091878310978491EC0B2DC
:10564000724A10187830017071480068002804D040
:105650002000C0B26E4909688847E4B26B4800195F
:10566000FF21C172002010BD80B5684984310968EE
:10567000012282400A40002A01D0032006E0FCF704
:1056800041FD002801D1002000E0012002BD80B5CD
:10569000FCF753FD002801D1002000E0012002BDED
:1056A000F0B583B0089C099D584E843636680127B2
:1056B00087403740002F01D0032008E00195009477
:1056C000FCF770FD002801D1002000E00120FEBDA4
:1056D00010B582B0049CE4B20094DBB2D2B2C9B27D
:1056E000FCF7B5FD002801D1002000E0012016BD27
:1056F00070B582B0069C454D84352D6801268640E4
:105700002E40002E01D0032007E00094FCF7F6FDA8
:10571000002801D1002000E0012076BD80B5D2B282
:10572000C9B2FCF739FE002801D1002000E00120B9
:1057300002BD80B5FCF77AFE002801D1002000E010
:10574000012002BD80B5FCF7DFFE002801D100205A
:1057500000E0012002BD38B52C4C646F0125854066
:105760002540002D01D0032006E0FDF7F9FD0028BB
:1057700001D1002000E0022032BDF2B584B00A99C8
:105780000B9C0C9D214E766F012787403740002FE0
:1057900001D003200AE00295019400910499FDF7DD
:1057A00012FE002801D1002000E0012005B0F0BD6C
:1057B000F0B583B0089C099D144E766F0127874091
:1057C0003740002F01D0032008E001950094FDF739
:1057D0004DFE002801D1002000E00120FEBD0000A8
:1057E0001013001080B5094A526F01238340134003
:1057F000002B01D0032006E0FDF79CFE002801D11C
:10580000002000E0012002BD08130010540D00101C
:105810000C13001010B504000298002C07D0002AC9
:1058200005D0002903D0002B01D0002802D1002090
:10583000C04318E001280ADB012902DB814200DABB
:105840000800012B08DB834206DA180004E09942C5
:1058500001DA080000E01800002102E0635C535404
:10586000491C8142FADB10BD10B582B00024E4432C
:105870000094FFF7CFFF16BD00B58A1803E00B7840
:105880000370491C401C9142F9D100BD00B582183B
:1058900001E00170401C9042FBD100BD00B5010049
:1058A00000E0491C0A78002AFBD1081A00BD10B597
:1058B00004000800002C0FD0002802D52000FFF7BC
:1058C000EDFF0021401E05E0625C235C635422541E
:1058D000491C401E8142F7DB10BDF2B582B00700C3
:1058E00015001E000298002801D0012D01DA0020C9
:1058F00034E00097002F01D5380047420024AC4225
:105900000EDA38000A2102F02FF8303102980155E2
:10591000641C38000A2102F027F80700012FEEDA94
:10592000AC4210DA0098002803D502982D210155C9
:10593000641C002E07D0AC4204DA02980021015505
:10594000641C00E00026002E02D00025ED4300E09C
:10595000250029000298FFF7AAFF2000FEBD0000E5
:10596000F0B502000B0052B2002A21D552B2100746
:10597000000F0838800804214843714952B21407C7
:10598000240F083CA40804256C436D4D2C59FF25B9
:105990009607B60F08277E43B540AC439B01DBB2A8
:1059A0009207920F08256A43934023430B501CE053
:1059B00052B2100080080421484362490858FF2170
:1059C0009407A40F08256C43A14088439901C9B2EC
:1059D00093079B0F082463439940014352B2100080
:1059E000800804225043574A1150F0BD80B58021F1
:1059F0004904884201D3012010E00002000A401E41
:105A00005149086000210020C043FFF7A9FF4F481B
:105A1000002101604E4807210160002002BD00B551
:105A20004C480068401C4B4908604A480068802187
:105A30000906884207D347480021016046480068AC
:105A4000401C4549086045480068401C43490860BF
:105A500042480068FA218900884210D33F4800215B
:105A600001603F4800683F49884205D23C480068D1
:105A7000401C3B49086002E039480021016000BD3C
:105A800080B5344800210160334800210160364868
:105A90000068FA21890001F07BFF401EFFF7A6FF96
:105AA00001BD2C480068704700B50100002080222D
:105AB000120691420CD2274A12688A4208D09142BB
:105AC00001D2501A04E0484280188021090640188B
:105AD00000BD000000B522480068E121090101F085
:105AE00057FF00BD00B51E480068E121090101F023
:105AF0004FFF08003C2101F04BFF00BD00B51848E6
:105B000000683C2101F044FF080000BD00B51828E2
:105B100001D3042011E03C2901D304200DE03C2AEC
:105B200001D3042009E0E1231B0158433C235943DE
:105B3000401880180A490860002000BD00000000DD
:105B40001CED00E000E400E014E000E018E000E0FC
:105B500010E000E0181300101C13001020130010B8
:105B6000241300107F5101006000001010B50200E6
