:10000000100F0010193A00004D3300005333000068
:100010005B330000613300006733000014B6FEEF6D
:100020000000000000000000000000006D33000030
:100030007333000000000000793300007F330000BC
:10004000873300008D3300009333000099330000A4
:100050009F330000A5330000AB330000B133000034
:10006000B7330000BD330000C3330000C9330000C4
:10007000CF330000D5330000DB330000E133000054
:10008000E7330000EF330000F5330000FD330000DC
:1000900003340000093400000F340000173400005E
:1000A0001D340000233400002B34000031340000E4
:0C00B000373400003D34000043340000F1
:1001240081B0074948430009009002E00098401E4E
:10013400009000980028F9D101B070470000000039
:100144001CA20000094210D088420BD301220023D4
:1001540000185B418B4200D35B1A5241F8D319005B
:100164001000704701000020704708B5C046C04623
:1001740008BD10B40168001D00290FD00268821860
:1001840043680830DC0702D54C46641E1B1914680A
:100194001C60121D1B1D091FF9D1EBE710BC704731
:1001A40003484168AA21016055210160704700BFDE
:1001B4000840004030B402009007800FC500FF24BF
:1001C4002000A840C34388010440AC4010000BD574
:1001D4000007000F0838800880002A4908180168C1
:1001E4000B401C43046007E080088000264908187F
:1001F40001680B401C43046030BC704710B580217B
:100204004904884201D3012010BD204C0002000A99
:10021400401E606000210020C043FFF7CBFF002098
:10022400A06007202060002010BD19480168491C07
:100234000160016880221206914201D3002101600D
:10024400704780B512480021016012480068FA2105
:100254008900FFF777FF401EFFF7D0FF01BD0C4870
:10026400006870470100002080221206914207D2E4
:10027400074B1B688B4203D0581A994200D380184D
:10028400704700001CED00E000E400E010E000E036
:10029400080700102000001005480168FF22914360
:1002A40001600168034A0A430260704700000000CD
:1002B4000000024001000001012212060118CA4296
:1002C4000AD28A420DD83822120609098918C20FA7
:1002D400D20711434007704700D049080909014378
:0C02E40001E0C10FC907002070470000B6
:0402FC0021436587AE
:100300000121C006C00E8140CB4801607047012129
:10031000C006C00E8140C9480160704780B5072102
:10032000002000F08CFD1220FFF7EAFFC4480121F5
:1003300041621D21002000F082FD01BD80B5072132
:10034000002000F08FFD1220FFF7E1FFBC480021E4
:1003500041621D21002000F085FD01BD80B500F047
:1003600027FF01BD80B500F02EFF01BD10B5C64CC2
:100370001D21002000F0FFFC002805D000F0ECFE5D
:100380002068401C206010BD6068401C606010BD8B
:1003900080B5FFF7E7FF01221D21002000F0A5FC3A
:1003A00000221D21104600F0CFFC3220FFF7BAFEDC
:1003B00000221D21104600F098FCB448016810226C
:1003C0000A430260C820FFF7ADFE01BD10B59C4C8A
:1003D000A079002824D16078002821D10021084686
:1003E00000F0C9FC00281BD001220321002000F0EE
:1003F000ABFC0220FFF796FE6078002810D1CA48B7
:100400000168022291430160016805229143016065
:10041000002020700122014600F096FC012010BD52
:10042000002010BD86480178002900D0704780B5B3
:1004300001210170BC4841680169016805220A4335
:1004400002600020B94A00E0401C052809D243217F
:100450004143515C0029F7D100220321104600F0EE
:1004600073FC01BD002805D0022817D00CD3032847
:100470001ED0704786488178491C8170C9B2052911
:100480001FD30021817070478148C178491CC17019
:10049000C9B2052915D30021C17070477C48017A83
:1004A000491C0172C9B205290BD3002101727047A2
:1004B0007748417A491C4172C9B2052901D300210C
:1004C0004172704738B500205D4902000A704A70D9
:1004D000CA708A708A714A720A72C860FF224A74AE
:1004E00002000A74A84A4A61886101008F4B040027
:1004F00003E043224A439C54491C0529F9D30100D7
:10050000C34B03E043224A439C54491C0529F9D3B9
:100510000122014600F0E9FB01222146084600F0D5
:1005200013FC22460721104600F0DFFB574D102434
:10053000686A2043686201220321002000F0D5FB95
:1005400001220321002000F0FFFB00221D211046A4
:1005500000F0CBFB286804432C60002000900123AE
:100560000246072100F025FC0721002000F067FC6F
:1005700000200090012302461D2100F01AFC1D21DD
:10058000002000F05CFCA3480068FA218900FFF716
:10059000DBFD0100491E012000F0A0FF012000F05A
:1005A00094FFFFF7BBFE31BD80B55F4801680222B2
:1005B00091430160016805229143016001220021FD
:1005C000084600F0C1FB01220321002000F0BCFB23
:1005D0002F4800210170FF2141740121C161016296
:1005E00001BDF8B50700202400252E0005E0FFF727
:1005F00095FE2846FFF736FF761CF6B2052E19D277
:10060000FFF79CFE494822498A7843235A43825C7B
:10061000022AECD18A785A430323835489784322EF
:1006200051434018401C3860FFF778FE2846FFF71A
:1006300019FF2C002000F2BD00E100E080E100E0A5
:10064000BC05001070B5040000252E0002E0FFF785
:1006500065FE761CF6B2052E15D2FFF76FFE43201D
:100660007043324908180100491CA142EFD10570BE
:10067000FFF754FE06480078012804D12A460321DA
:10068000104600F061FB70BDD406001040400440ED
:10069000BC050010F8B504001F2500273E0005E04A
:1006A000FFF73CFE0220FFF7DDFE761CF6B2052EBA
:1006B00019D2FFF743FE5648B7490A7A43235A43F3
:1006C000825C002AECD10A7A5A4301238354097AC6
:1006D000432251434018401C2060FFF71FFE0220B8
:1006E000FFF7C0FE3D00002D03D0AB49C86A401C97
:1006F000C8622800F2BD38B50400002502E0FFF70B
:100700000DFE6D1CEDB2052D0DD2FFF717FE432037
:1007100068433F4908180100491CA142EFD102215A
:100720000170FFF7FBFD31BD048000407401001033
:1007300070B504000025984EAD48B06103E0FFF7A6
:10074000EDFD00F023F8FFF7F9FDF068002803D174
:10075000F460FFF7E3FD08E0B0690028EFD1FFF790
:10076000DDFD212501E0FFF7D9FDF068A04209D1A8
:1007700000F00CF8FFF7E2FDB0690028F3D1FFF7B5
:10078000CDFD2125280070BD204E000038B5072181
:10079000002000F0F0FA002839D0FFF7CFFD7E4CA2
:1007A000A079002831D1207800282ED0E0680028D8
:1007B00007D000221146084600F0C6FAFFF7AEFD4A
:1007C00031BD002505E0FFF7A9FD0320FFF74AFE34
:1007D0006D1CEDB2052D1AD2FFF7B0FD0C48617A01
:1007E00043225143415C0229EDD1617A51434018C3
:1007F000401CE060FFF792FD0320FFF733FE00226C
:100800001146084600F0A0FA31BDFFF787FD31BD63
:100810002400001020000010F8B500273E00B54C61
:100820005D4D6069800600D4B5E0002E00D0B2E0D6
:10083000E869002800D0AEE0A87906280DD007218D
:10084000384600F098FA002807D0A879002800D18F
:10085000A1E0FFF79DFD012691E0E968A87906284F
:1008600000D98AE001A2125C520097440325864B0E
:1008700050617000002900D17FE0380000E0401C8A
:1008800005280CD2B04A43234343D21813005B1C03
:100890008B42F4D11378022BF1D103201070380071
:1008A000A8720878E8720120A871AA7A1000401C8A
:1008B000A872885C206060E0AA7A1000401CA872D0
:1008C000885C2060A87A0818401E0078FF2809D1AB
:1008D0000220A8710320E8716068022188436060EB
:1008E00001264AE0E87A002809D00220A8710520F4
:1008F000E871606802218843606001263DE00620BF
:10090000A8713AE0087C20600420A87135E02760D7
:10091000E87A002809D00220A8710520E8716068F3
:10092000022188436060012627E00620A87124E0A8
:10093000AA7A1000401CA872885C2060E87A401EE9
:10094000E872C0B2002818D10620A87115E038005E
:1009500000E0401C052808D27B4A4321414351183E
:100960000A78032AF5D138000870EF606068022128
:10097000884360603800A871012674486861002EC1
:1009800000D04EE7E869002800D04AE76069800699
:1009900000D546E7FAE7F1BDBC05001010B5072108
:1009A000002000F0E8F900280CD169480168022213
:1009B0000A43026001220021084600F0C5F9FFF752
:1009C0002BFF10BDB34CA07902280FD10022114695
:1009D000084600F0B9F9E079032802D10320A0719C
:1009E00010BDE079052801D10520A07110BD0000DF
:1009F00060EA0000F8B500200090A64C03E0142047
:100A00002074524860613B484169C90770D500991C
:100A100000296DD107682078012866D16078002808
:100A200003D0022857D027D3EBE7022060703800AC
:100A3000401C607114202074FFB2402FE1D20025C9
:100A4000954E03E00120FFF70DFD6D1C052DD8D25A
:100A5000E07843214843311808780028F2D100207B
:100A60002071012002006270087022791000401C81
:100A7000207188184770C4E7E17822791000401C83
:100A80002071854E43204143701881184F70617961
:100A9000491E6171C9B200291AD100216170022179
:100AA0000170002020740120FFF7DCFC002500E02D
:100AB0006D1C052D04D243206843305C0028F7D11B
:100AC000052D9ED101220321002000F03DF998E779
:100AD0001420207495E76079401E6071C0B2002830
:100AE0008DD10020607020748BE7012000908AE790
:100AF000F1BD00000080004080B568488168490869
:100B00004907490F01291CD01DD3032901D015D352
:100B100001BD41690A009E231A420AD0C90701D5C6
:100B2000006800905E480168491C0160FFF730FCD6
:100B300001BDC80707D5FFF75DFF01BDFFF75AFFED
:100B400001BDFFF769FE01BD24000010204E00002A
:100B50000480004038B54F4C606A002800D197E00F
:100B6000002528000023DB430CE0810061180A6B9C
:100B70009A4201D0521C0A630A6C002A01D0521E0C
:100B80000A64401C0428F0DB207C00282BD0207C49
:100B9000401E2074C0B2002825D1A06A401CA0626B
:100BA0000120E06120622800A071607009E03A49EC
:100BB0004322424389180A78012A01D12A000A7087
:100BC000401C0528F3DB280009E036494322424354
:100BD00089180A78032A01D102220A70401C0528CC
:100BE000F3DBFFF7D5FB607C002835D0607C401E2E
:100BF0006074C0B200282FD1012020702800A0719D
:100C00006070E561256209E0234943224243891867
:100C10000A78012A01D12A000A70401C0528F3DB5A
:100C2000280009E01F494322424389180A78032A11
:100C300001D102220A70401C0528F3DB1A484168E2
:100C40000169016805220A4302602A460321104611
:100C500000F07AF8FFF782FB6069002812D0606923
:100C6000401E60610ED101220321284600F06CF87D
:100C70000120FFF757FA2A460321104600F064F8D6
:100C80000A486061A069002802D0A069401EA061E6
:100C900031BD0000BC050010740100100080004050
:100CA000F40600102400001004800040204E0000D4
:100CB0000121C006C00E81408C480160704780B59C
:100CC0008B4801688022D2050A43026001688022B5
:100CD00012060A4302600020A021C9050860854968
:100CE00008601920FFF7E4FF01BD002802D00128A9
:100CF00015D07047012088407F490B68034005D11B
:100D0000012A03D10A681043086070470B6803404A
:100D100019D0002A17D10A6882430A60704701205F
:100D2000884076490B68034005D1012A03D10A683F
:100D30001043086070470B68034004D0002A02D1BA
:100D40000A6882430A607047002802D0012809D04F
:100D50007047012088406A49002A01D00860704726
:100D600048607047012088406649002A01D0086029
:100D700070474860704702000020C043002A02D03C
:100D8000012A0BD070476048006801228A40024067
:100D90001000401E8041C043C00F70475B48006890
:100DA00001228A4002401000401E8041C043C00F13
:100DB000704738B4039C002802D001281FD03CE0C3
:100DC000012088405249002A0DD1C2430D681540C8
:100DD0000D60002B03D14B681A404A6006E04A6858
:100DE00002434A6002E00A6802430A60002C8A68F3
:100DF00002D182438A6020E0104388601DE0012018
:100E000088404449002A0DD1C2430D6815400D6049
:100E1000002B03D14B681A404A6006E04A6802433F
:100E20004A6002E00A6802430A60002C8A6802D124
:100E300082438A6001E01043886031BC704700281B
:100E400002D0012807D070473348026801238B4045
:100E50001343036070473148026801238B401343FA
:100E600003607047002802D0012807D070472A4845
:100E7000026801238B409A4302607047274802684A
:100E800001238B409A430260704710B40200002097
:100E9000002A02D0012A09D010E00122204B1B6851
:100EA00014008C401C4009D0100007E001221D4BAB
:100EB0001B6814008C401C4000D0100010BC704710
:100EC000002802D0012807D00CE01748026801234F
:100ED0008B401343036005E01448026801238B40F4
:100EE0001343036000BF00BF7047000000E100E053
:100EF000808004400000015020000050200001507C
:100F00000C0000500C00015004000050040001507F
:100F100024000050240001503000005030000150E7
:100F200038000050380001503C0000503C00015097
:100F300080B507210020FFF7A8FF002805D0072172
:100F40000020FFF7BDFFFFF729FD1D210020FFF75F
:100F50009CFF002805D01D210020FFF7B1FFFFF7FF
:100F600005FA01BD38B50500FFF71CF99621090205
:100F7000002000F0A9FB964C256000256560A56067
:100F8000E5602563E56393482062FFF76AF96061D5
:100F9000914801686164A564256190490068086012
:100FA000FA20C000E061682029002154A06D0028CB
:100FB00003D0A06D00F0DFFCA56500F0BFFDBC48CC
:100FC00005604C20290021544D20FF2121544E2042
:100FD0007F212154B7A02065012060652561403440
:100FE000022020700121BD4800F02CFE31BD000020
:100FF00038B5774CA068002808D1012500F09EFE86
:10100000002801D0656031BDA56031BD00F0FCFE57
:10101000206B002800D193E0E068002802D0200077
:1010200001F073F96069FFF71FF9E169814200D3AC
:1010300086E0FFF716F960616420E0614020205CE3
:10104000801E0B2800D97BE001A1095C8F4400BF02
:101050000C3658F0788C9EAE48F0F0C2200001F0BB
:10106000EFF800286CD101254C20290021544D2097
:1010700021544E207F212154A0A020656565403475
:101080000320207031BD200001F0DAF8002857D18C
:1010900040340A20207031BD01F0C6F800284FD13D
:1010A00040340C20207031BD606C002848D021688D
:1010B000606C01F0E7F8002842D14020062121545D
:1010C000FFF7CFF8A06131BDA069FFF7CDF88C49DB
:1010D000884235D340340420207031BD200001F017
:1010E000AFF800282CD140340820207031BD01F029
:1010F000EAF8002824D140340920207031BDA069CD
:10110000FFF7B2F87E4988421AD340340420207099
:1011100031BD606AFFF7A8F8216A814209D24020F8
:10112000042121540020A0642061200001F08CF9EA
:1011300031BD2069002803D000F052F80020E061A2
:1011400031BDBA4801000C3100220A6301220A6055
:101150004030042101707047B4480021016370479A
:1011600010B5B24CC178032902D00121616007E0BB
:1011700000210279120601D4A16001E021636163BC
:10118000C079022806D00A2804D0122802D01428D8
:1011900007D010BDFA20C000E061FFF762F860617F
:1011A00010BDFA20C000E061FFF75BF8606110BD80
:1011B00010B59E4C0120206360630020E063FFF7C0
:1011C00050F8A06310BD994800214163C163704786
:1011D000EC04001088130000A406001000070010A3
:1011E000F8B500273D00914C6820205C05285BD8AD
:1011F00001A1095C8F4400BF06345870789826001E
:101200003036306800284FD000F055FCB062B06A2C
:10121000002802D100F071FCB062B06A002843D00F
:101220000125683428002070F7623DE02600303642
:101230003068002838D0B06AB06A01F097F800280A
:1012400032D1683402202070FFF70BF830632BE0B6
:1012500020003030006BFFF707F87549884223D330
:101260006834042020701FE06834052020701BE0E3
:1012700026003036F06A052806D2F06A401CF0627B
:101280006834012020700FE06834052020700BE0E6
:1012900026003036B06A00F06EFBB7626834277003
:1012A000FEF7DFFF70630125002D9BD1F1BD00002B
:1012B000AC0500104100000000280DD15B486822F9
:1012C000825C022A08D1002903D068300321017012
:1012D000704768300421017070470000F10F000072
:1012E00010B5524CA06AFEF7BFFFE16A884204D3F2
:1012F00000F0FCFF4F4800F0D6FC10BD430000009A
:1013000089130000F0B597B003001D981E9F1F9A27
:10131000FF25002631001B789C06A40E04D0022C69
:101320002AD0032C59D07FE0404B1C001034256894
:10133000002D79D0002877D100E0761C96420BD2A0
:101340001D004035A8680028F7D0B85D8446A8681D
:1013500065468542F1D10121002965D0FEF781FF64
:10136000A061B0008019E061FEF77BFF606105219C
:10137000304800F067FC57E02C4B1C001034062866
:101380000ED12D480121016040331D000D20287031
:10139000FEF767FF60610121A86800F020FC43E0D0
:1013A0002168002940D06B46390001F038F86846C2
:1013B000407801002039C9B2C02904D20500203D7F
:1013C000FEF74FFF6061FFF701F8324629006846DB
:1013D00000F018FCFFF726F826E0190624D50528AA
:1013E00002D007281BD01FE0104B1D0040352E7384
:1013F0000120010069736968A97310A129616861FE
:10140000072129706968A96010331C002060032A35
:101410000AD3B878FA2189004843206104E0034BDD
:101420004020052119541E6117B0F0BDEC040010D6
:10143000E9030000E1120000AC05001041000000CB
:101440000121C006C00E81403A480160704730B4A7
:1014500002009007800FC500FF242000A840C3436E
:1014600088010440AC4010000BD50007000F08387D
:10147000800880003049081801680B401C43046054
:1014800007E0800880002D49081801680B401C43C4
:10149000046030BC704780B529480168C90701D590
:1014A00001210160102102680B001A4200D0016086
:1014B00024480168002905D00168491E016001D156
:1014C000FEF7ECFEFFF746FB01BD0121002802D12B
:1014D0001D48016070471D480160704780B50028B5
:1014E00012D11B480268430D134303601948416041
:1014F00005214161032101600F20FFF7A1FF0221B7
:101500000F20FFF7A4FF01BD012811D11048026888
:10151000030D13430360104841600521416103211D
:1015200001601020FFF78CFF01211020FFF78FFFD3
:1015300001BD000000E100E01CED00E000E400E07F
:1015400000C00140B00600100480014004C001400A
:10155000808004401480014014C001400121C00675
:10156000C00E81404F48016070470121C006C00E87
:1015700081404D480160704730B402009007800FF1
:10158000C500FF242000A840C34388010440AC40AC
:1015900010000BD50007000F083880088000434971
:1015A000081801680B401C43046007E080088000B5
:1015B0003F49081801680B401C43046030BC704769
:1015C0003C48072101607047FEB5ECB0040024A838
:1015D0007AA19022520000F06BFF12A8BFA148220E
:1015E00000F066FF684600BFCEA1482200F060FF11
:1015F000684D09E02800FEF761FE67A20CCA00F002
:1016000071FF01F043F805002800654901F070F80A
:1016100024D26C9801F080F80700200101F07CF8DA
:10162000290001F088F80100380001F0DEF801F02F
:1016300031F9060020007043000101F06DF801004F
:10164000380001F0D2F8534901F042F9D2D8544998
:1016500001F04EF8CED2050074980660554C002774
:101660003E0013E0B00024A90858290001F077F9E2
:10167000002101F03DF802D28021090648402100F6
:1016800001F036F801D237000400761C482EE9DB61
:1016900012A8C05D6D9908606846C05D6E990860CB
:1016A0006FB0F0BD00E100E080E100E01CED00E083
:1016B00000E400E0048000404169416900E0016805
:1016C0004169C907FBD47047F0B585B006000D002D
:1016D00001D19625AD012E4C6169890603D4401CC9
:1016E00030498842F7D33048B10041188D6000215D
:1016F00001601220FFF739FF0720C0432B490A6819
:1017000002400A6002220B6813430B604B681840CA
:101710004860486802434A6025480168A20C0A43B1
:1017200002600121816181698320E06002A800904C
:1017300003AB04AA01921F001F480068FEF704FDD6
:1017400001003B00019A2800FFF73EFF0298C0B25B
:10175000049A039909011143029A120A62602060F7
:10176000A1620320E0600720A0606069606900E07A
:1017700020686069C007FBD41220FFF7EFFE01214B
:101780001220FFF7F9FE3000FFF71AFF05B0F0BD99
:1017900000800040CDCC8C3F9A9999999999B93F96
:1017A0003433F33F41420F00940600104840044098
:1017B0008080044000002041200000100000803F95
:1017C0000000A03F0000C03F0000E03F7593883F4D
:1017D0000E2DA23F5839C43F986EE23F8716893FCD
:1017E000AAF1A23F2FDDC43F8195E33F23DB893F70
:1017F000A69BA43F8FC2C53FA69BE43FBE9F8A3FE6
:101800006666A63F022BC73F6666E63FE3A58B3FB1
:101810008B6CA73F8716C93F39B4E83FCDCC8C3FCE
:10182000BE9FAA3FBE9FCA3FBE9FEA3F3F358E3F45
:101830002DB2AD3FCDCCCC3FBA49EC3F0000903F3C
:101840008D97AE3F52B8CE3F2DB2ED3F2506913F6A
:101850000000B03F0000D03FDBF9EE3FD34D923F98
:10186000AE47B13F7368D13F0000F03F46B6933FAB
:101870003333B33FD34DD23FC1CAF13F4260953FAE
:101880004260B53F4260D53F3333F33FC74B973F8C
:1018900079E9B63F7593D83F1D5AF43F9A99993F1D
:1018A000FED4B83F9A99D93F4260F53F5A649B3FB6
:1018B000713DBA3F5A64DB3FDD24F63F7F6A9C3FAF
:1018C000D122BB3F560EDD3F79E9F63F68919D3F3F
:1018D000A8C6BB3FF2D2DD3F8B6CF73F000101038E
:1018E0000104080A010307070102060B01030504AE
:1018F00001040409010107050105030B01040806A1
:101900000203050D01050707020209080105020986
:101910000203090A0104070B0305050C0206080D62
:1019200003070B0E010402040F0F0F0D0E0B0D0920
:101930000D070B0E0C0A09050B0D070B0A030C060D
:10194000090E050D080B0D070F08080F070D0B08F2
:101950000D050E09060C030A0B070D0B05090A0CF1
:101960000E0B070D090D0B0E0D0F0F0F80B501218A
:1019700001F04DF802BD80B5002801D1002002BD64
:1019800001F05EF8012002BD10B4010011D0002169
:10199000040000E0491C03290BDA8A00A64B9A18C0
:1019A0001368A34202D01368002BF3D1106001200A
:1019B00000E0002010BC704710B4010011D00021DD
:1019C000040000E0491C03290BDA8A009B4B9A189B
:1019D0001368A34202D01368002BF3D110600120DA
:1019E00000E0002010BC704780B501000ED0944A82
:1019F000106E042803D30800FFF7BDFF06E0136E46
:101A00001800401C1066980010180164002002BDE8
:101A100070B5002801D1002070BD894A536D002B9C
:101A200002D0D36D102B03D3FFF7A5FF002070BDAC
:101A30000029D16D0ED0491E05E08B00D3181C1F64
:101A400024681C60491E0129F7DA1060D06D401C23
:101A5000D0652EE0002926D1916D002923D00123E5
:101A600004780D78AC4217D144784D78AC4213D14C
:101A700084788D78AC420FD104790D79AC420BD1CA
:101A8000002400E0641C0579AC4206DA0519AD7942
:101A90000E19B679B542F5D00023002B03D0FFF71D
:101AA0006AFF012070BDD16D89005050D06D401C7F
:101AB000D065012070BD30B46149086E002801D1A5
:101AC000002018E0086C0022130004E09C000C19B0
:101AD000656C25645B1C0C6E641EA342F6D30B6E12
:101AE0005B1E03E09C000C1922645B1C042BF9DBD9
:101AF0000A6E521E0A6630BC704730B45049C86D39
:101B0000002801D1002017E008680022130004E03B
:101B10009C000C19656825605B1CCC6D641EA3429B
:101B2000F6D3CB6D5B1E02E09C000A515B1C102BB0
:101B3000FADBCA6D521ECA6530BC7047F8B5002783
:101B40003D0008E0A80024182068002802D0FFF714
:101B500012FF27606D1C3A4CE06D8542F2D3E765B9
:101B60003D0008E0A8002618306C002802D0FFF7DE
:101B700002FF37646D1C206E8542F3D32766F1BDEA
:101B8000F2B5040017001D00069E512D00D350250C
:101B90002800801DFFF7EAFE00280CD00470009991
:101BA000417087700021C170057180214171002E44
:101BB00001D0C0214171F2BD70B582B00400002097
:101BC0001F4D6E6D002E09D0C02907D2009313005F
:101BD0000A0020342100286DFFF7D2FF76BD70B5D2
:101BE00004000E0000250AE0A80013490A18106836
:101BF000002803D031002000126890476D1C032D8F
:101C0000F2DB70BD76B506000D00002410E0A000E8
:101C10000A490B181868002809D001AA29003000C9
:101C20001B689847002802D00199FFF7F1FE641C59
:101C3000032CECDB73BD0000BC060010C8060010CE
:101C40005805001002000020C043130000D1704767
:101C500070B4002925D000200300160000E05B1CB2
:101C6000182B0ADA334C5D00ED18AD0064192568B5
:101C7000B542F4D16160A06013E0030000E05B1C9A
:101C8000182B0EDA2B4C5D00ED18AD006419256899
:101C9000002DF4D122606160A06027490A68521CBF
:101CA0000A6070BC7047010000D1704730B4002159
:101CB0000A0005000DE053009B189B001D4CE31823
:101CC0001C68AC4204D119601B4B1C68641E1C606C
:101CD000521C182AEFDB30BC704700200BE041009B
:101CE00009188900134A51180A68002A02D08A6824
:101CF000521C8A60401C1828F1DB704738B500255B
:101D000015E06000001980000A49081801680029E0
:101D100006D081684268914202D38560006880479E
:101D2000641C182CEDDBFFF7D8FFFEF73BFA2C0004
:101D3000F7E70000C4020010F8060010F0B595B0F7
:101D400012220021954800F0E2FEFEF7BBFB00F0F6
:101D5000E5FE01904222002103A800F0D8FE03AE68
:101D6000082070701C203070024601993000801CE1
:101D700000F0C4FE03A8FEF7DBFC0199C97E6A46A9
:101D80001170002400282ED12700684600780290A8
:101D9000001B3E2802DB3D003D3501E0684605782A
:101DA0004222002103A800F0B2FE0B207070280030
:101DB000C01C3900401A30703800B070F5706846A9
:101DC00000783071EDB2EA1B019801191C31300026
:101DD000401D00F093FE03A8FEF7AAFC6119CC1B7E
:101DE00002998C42CED100280BD14222002103A8B7
:101DF00000F08DFE03A950224A7000220A70FEF7FF
:101E000097FC15B0F0BD000030B587B000240494F5
:101E1000FEF7BCFC04A8FEF7E4FB002800D0BAE003
:101E20005FA000680590049880780499C9788022A2
:101E30000A406B461B7D10252B406F2505401D4336
:101E400015436A461575049A5278062A00D193E024
:101E50000B2A00D193E00D2A00D193E0162A52D02C
:101E6000182A02D0502A7BD092E002063FD4049A6E
:101E7000127C13006C2B02D0732B19D01EE0049837
:101E8000407C002802D0012808D00FE0C046C046A0
:101E900022461146802000F05BFE28E0C046C04686
:101EA00022461146702000F053FE20E001241EE07F
:101EB0000498407CFF281AD1012418E0049B1B7968
:101EC0005B1EDBB20393049B113302930192020069
:101ED00012111300DB07DB0F0093400983079B0FF0
:101EE0000A00D20905990498401D00F056FE002C06
:101EF0004ED000231A460498007CC106C90E0598EE
:101F000000F050F844E003220B001B0915002B429F
:101F10000DD003063CD409110A40012A01D1012148
:101F200000E021000007000F00F046FE30E001064F
:101F30002ED40F210A0002400F2A02D1174804753F
:101F400026E0049A1279521ED2B20092049B1133F9
:101F5000049A127C01400498401DC046C04617E018
:101F6000FEF722FB0D4804751222049900F0C6FD0D
:101F7000049800F00EFE0BE0C046C04608E0C046E4
:101F8000C04605E004988078052801D100F018FECD
:101F90000498FEF757FB07B030BD00007C06001028
:101FA00000000000F1B582B00F0016001D000020F7
:101FB00004000090322D01D30D2454E06846007ACD
:101FC00040098007800F032801D00E244BE06846AB
:101FD000FEF760FB002801D01F2444E04222214686
:101FE000009800F094FD6846007A000601D50520AF
:101FF00000E00420102101430098417028000F30B8
:10200000009908702800401C009908710098807899
:1020100060210143009881700098C078012101433C
:102020000098C17000988178F02008406946097ACC
:102030000907090F0143009881706846007A8021E2
:1020400008400099C9784906490E01430098C170BB
:10205000009807742A0031000098113000F04EFDFE
:102060000098FEF748FB2000FEBD80B52A2200281C
:1020700008D04649CB78FF2B04D00622093100F066
:102080003DFD0022100002BDFEB505000F000B9CB7
:102090000026009600F044FD322C01D30D2673E09B
:1020A000002D07D10899002906D10068002803D027
:1020B0000B2669E00C2667E06846FEF7EBFA00287D
:1020C00001D01F2660E068460079022805D1002F64
:1020D00001D0052506E0042504E0002F01D00325EA
:1020E00000E0022542223146009800F010FD0098E1
:1020F000102129434170009880789F210140684653
:102100000079400108430099887000988078F02198
:1021100001400098817000988078EF21014002987A
:1021200000010843009988707F2000998978014058
:10213000009A91700099C9780840F901014300980C
:10214000C1702000401C00990871009809A9097805
:10215000017422000A990098113000F0CFFC089811
:1021600000280BD00B2201460098401D00F0C6FC51
:102170000098C078082101430098C1700F3400987E
:1021800004700098FEF7B7FA3000FEBD7C06001020
:10219000F2B582B0070000250095224C207D002872
:1021A00001D015253CE0207C401EB84201D22C25F0
:1021B00036E01F266846FEF76DFA002801D035008C
:1021C0002EE042222946009800F0A1FC0098202130
:1021D00041700098067000986321017400981121E5
:1021E0000171009880786021014300988170009807
:1021F00080780F2101430098817000988078102129
:102200000143009881700098477400981230029939
:102210000F2200F039F90098FEF76DFA01202075C1
:102220002800FEBD7C06001080B5684605210170BF
:1022300000214170022269460D2000F089FC02BD98
:1022400038B54C3005008A4C28786070AA686968F7
:102250002000801C00F052FC287A4007400FA0723A
:1022600068782072A8788021014361720622FF21DC
:1022700020000B3000F04BFC2100891C6078FFF738
:1022800087FF32BD7CB506000D0007230022042124
:10229000104600F053F8040013D06846FFF7E5FE3F
:1022A000A670A571062269462000C01D00F026FC1C
:1022B000200000F05BF805002000FFF75CFB280021
:1022C00076BD1F2076BD38B500231A460121084689
:1022D00000F034F8040007D000F048F805002000B2
:1022E000FFF749FB280032BD1F2032BD80B5002317
:1022F0001A460121084600F021F8002803D0FFF714
:1023000073FB002002BD1F2002BD5A490A68D2009B
:1023100000D4704780B50A68574B13400B6001002A
:102320004031564A13684B6004230B700021016151
:10233000534912680A6000F087F801BDF8B504003F
:102340000F0015001E00512E00D350263000801DB6
:10235000FFF70CFB002808D041790C43447104219D
:1023600021434171477085700671F2BD70B59EB012
:10237000002801D1312050E006A982780A70427904
:102380004A700200921D04D10279002A01D0002275
:1023900002710279512A01D3502202710279002A76
:1023A0000CD00200921D09D0002204E08B18841882
:1023B000A4799C70521C03799A42F7DB0179891C3D
:1023C00004AB012422001A7073229A700522DA707D
:1023D0004279550702D425001543457100252A008E
:1023E0004679B607B60F02D0012E04D009E01C7161
:1023F00080245C7005E04678012E00D102221C7119
:102400005D70039106A902914078019004A80090A4
:102410002B4619460846FFF737FE1EB070BD80B543
:1024200058700878987048785871901E1871C0B22A
:10243000512801D3502018711A79891C9B1D18004E
:1024400000F05CFB002002BD38B500240D490C6093
:1024500005001035AC632C60683021000170A86C59
:10246000002802D0FFF787FAAC64FFF767FB31BDA5
:102470004C060010A8060010FFFFFFEFA406001096
:1024800000070010AC050010124207D08B0706D0E1
:102490000B78491C0370401C521EF7D87047830705
:1024A00006D00B78491C0370401C521EF9D17047AE
:1024B00070B4103A03D378C9103A78C0FBD25307EE
:1024C00001D318C918C001D508C908C0D20704D360
:1024D0000B880380891C801C002A01D50B780370AF
:1024E00070BC7047F0B40125ED070F005F404FD47A
:1024F0008B4200D1824205D98446100062468C4648
:1025000019006346DF184C18640D7F0D3AD0661C25
:10251000760537D0E61B352E34DCDB022B43DB0A95
:102520000C0DC9022943C912202E0DDB1700203ED5
:1025300006D01F00F741F3405F400026012A774193
:10254000C01871410DD217E01700F741F240574013
:10255000F3415A40B340F3405A4000268018594195
:102560000AD3A21C52050FD0C207012F72411700D7
:102570004008CB0718434908641C24054208AF41B2
:1025800070416141F0BC7047641C21050020F9E7EF
:102590006B400AE06B40ABE7F742F3D1E943F1E768
:1025A0002442EFD100200021ECE70C00871A9C4167
:1025B00005D2C01BA141D219634169406B40AE0AEC
:1025C000DF184C18F442E7D2640D7F0DE8D0E61B0B
:1025D000362ED7DCDB022B43DB0AA4460C0DC902E6
:1025E0002943C90A012E28DC04D1D6075208DF0787
:1025F0003A435B08EF0A76429041994114D0394240
:102600003BD1B61940414941761C394204D1761C70
:10261000001849413942FAD0B9436746B74208D950
:10262000A41B24052143ADE70042EAD13642E8D19C
:10263000A8E7E40AE1070020A4E7202E0BDD203EF6
:102640001F00F340F7415F40012A002257417E42BC
:10265000984191410BE01700F741F2405740F34198
:102660005A40B340F3405A407E42904199410A0398
:1026700003D2641EB619404149410027641E240557
:102680004208AE4178416141F0BC704701225205D9
:102690004B18DA4201D9581570475B0D0722D20159
:1026A0009B1A10D9FF2B1DD2DB050122D2070A404D
:1026B00013430903020D1143490AC200524100D9D4
:1026C000491CC81870470AD1800A0A0302435212F3
:1026D000921C04D9D3070B40D00518437047C80F8C
:1026E000C0077047C80F0002FF30C00570470000E8
:1026F0000CB4012212060318DA4207D84B18DA424A
:1027000004D802000A43921802D288420CBC7047D7
:10271000FCD08142FAE700009D2102000AD002D4D9
:10272000491E9218FCD5C905100A1206524100D361
:10273000012A4841704730B405004D400122D207BC
:1027400015404B180418240E30D01B0E34D0FF2C2B
:1027500036D0FF2B3CD0E41800020902104311438D
:10276000000A090A9446C2B24A43000AC3B24B4364
:10277000000A4843110A5B18190A12061B0C1A4377
:10278000120A091801D44918641E080A7F3C23DB89
:10279000FE2C08DAE40509061143634699416041BD
:1027A000284330BC7047FF20C005F9E728001B0E06
:1027B000FF2BF6D1D043F4E72800FF2CF1D1F9E745
:1027C0004002F7D1FF2B01D14902F3D1E005E7E741
:1027D000D8054902E4D0EDE743020020641CDFD1B4
:1027E0005B129B1CDCD9D805DAE730B405004D40FC
:1027F0000122D20715404B180418240E28D01B0EB6
:102800002FD0FF2C34D0FF2B37D0E41A000209025E
:102810001043114343084808D10D1B1A02D2641E0D
:10282000DB181B18DB18834200D31B1A4941F9D36C
:102830007F3426DDFE2C08DAE4054808C907194371
:1028400091416041284330BC7047FF20C005F9E743
:1028500028001B0E03D0FF2BF5D14902F3D0D04343
:10286000F1E7FF2C01D14002F9D1FF20C005E9E7D3
:102870004002F4D1FF2BF8D1F1E728004902E2D061
:10288000EDE70B0200202442DCD15B129B1CD9D95E
:10289000D805D7E70122D2070118090E7F3910D4D5
:1028A00049421F310FD4001805D2C0011043C8405F
:1028B00000D5D0437047C0011043C84005D4404202
:1028C0007047002070470042F3D5100070470000A9
:1028D0000CB4012212060318DA4207D84B18DA4268
:1028E00004D802000A43921802D281420CBC7047FD
:1028F000FCD088420CBC7047431A01D2C01AC918D8
:1029000030B44B180418240E1B0E22D0FF2C20D0FC
:10291000E31A182B1DDC09021143C40D641E0002CA
:10292000104394461925ED1A0A00AA40D9404518CB
:1029300001D36D08A41CE405D209280A2D062A43F8
:102940006546AA41604103181B0EFF2B01D3C00D41
:10295000C00530BC7047514006E05140CCE7012231
:10296000D20703004B40F8D4431A03D2C01AC91847
:102970005040514030B44B18090211430418240E42
:102980001B0E40D0FF2C3AD025009D410BD31ED802
:10299000C50D4002401A0BD3ED050100400AC905E0
:1029A00091416841D5E7C50D40024918401AD0D081
:1029B00001214008491C0018FCD58C4204D36D1A33
:1029C000000AED054019C4E7E8051040C1E7182DDD
:1029D000BFDCAC1C0D00E140E5414D40012D4941FB
:1029E000C40D00021043451A01D46D199543641EAD
:1029F000E405280A2D069541604130BC7047FF2B45
:102A0000A7D1D843A5E72442A3D10020A1E738B538
:102A100004000D00002C08D00020C0432100FDF769
:102A200093FBA84201D2002032BD6C43200000F08D
:102A3000CBF8050002D0210000F026F9280032BDB5
:102A4000002800D1704710B5083804002068082815
:102A500038D3400736D1012000F039F91A484168CF
:102A6000002901D08C4203D26160446019E0190052
:102A70004B68002B01D0A342F9D30A688B189C4203
:102A80001DD3A34204D12368D2180A600C0008E0C9
:102A90004A68002A03D02368E3189A420FD3626081
:102AA0004C60616800290AD02268A3188B4206D1C5
:102AB00000230360086810182060486860600120E7
:102AC00000F028F910BD0000EC0600100A4801686B
:102AD000002900D172B60168491C016070470648A0
:102AE0000168002906D00168012900D162B6016899
:102AF000491E016070470000FC0600108A1803E0C0
:102B00000B780370491C401C9142F9D17047821820
:102B100001E00170401C9042FBD1704701A070475A
:102B20000AA070470F6F9FFFFF0000000400372EC0
:102B300016091A2B2C000400FC00000000002A0BD0
:102B400000004000006060505000000000000000E5
:102B5000F8B507000E001500002400946846FDF744
:102B600099FD002801D01F2411E04222214600983F
:102B7000FFF7CDFF00980570009847702A003100DC
:102B80000098801CFFF7BAFF0098FDF7B4FD200005
:102B9000F2BD80B5FEF7E4FA01BDF0B585B00A9C40
:102BA0000B9D0C9E0D9F0397029601950094DBB23E
:102BB000FEF7A8FB05B0F0BD80B5FEF77DFB01BDBB
:102BC00080B5FEF7BEFA01BD70B505002C000F34CC
:102BD00007208443012000F07AF8A5422CD2082C6B
:102BE00004D2082402E00830FFF72AFF254D2868A8
:102BF00001000CD1291D0868002816D00268A242E5
:102C000018D2011DF7E71368A34213D2111D0A68F9
:102C1000002AF8D10068291D00E0111D0A688242CF
:102C200003D01368A342F8D304E000F081F8002831
:102C3000D9D10021002904D1012000F06BF8002037
:102C400070BD0E6830680200083AA24202D2706875
:102C5000086007E032190A6073685360001B0A6855
:102C6000106034600868002804D04168002901D051
:102C7000001D00E000202860012000F04BF808361D
:102C8000300070BDEC0600104118884204D00022CC
:102C90000270401C8842FBD17047000010B5234CE5
:102CA0002068002812D0201DC046C04620000830F1
:102CB000C046C04620000C30C046C0462000103040
:102CC000C046C04614342000C046C04610BD38B5CA
:102CD0000400164D2868002812D1281DC046C046A1
:102CE00028000830C046C04628000C30C046C04608
:102CF00028001030C046C04628001430C046C046E8
:102D000001202860052C04D2A0002818001DC04610
:102D1000C04631BD052800D3704780B58000034907
:102D20000818001DC046C04601BD00006406001022
:102D300006490868002801D0002070470448086050
:102D4000044907229143091A016070470C070010DB
:102D5000100F0010B012001038B505000C00012350
:102D6000022250210020FEF727FF002804D08471A2
:102D7000C5710021FEF74CFE31BD70B506000D0097
:102D800014000123032251210020FEF715FF002823
:102D900005D08471C67105720021FEF739FE70BD41
:102DA00080B5002903D11100FFF7D6FF01BDFFF761
:102DB000E4FF01BD0A000270120A42700A00120C00
:102DC0008270090EC1707047017840780002084394
:102DD00070470A000270090A4170704738B5040054
:102DE0000123042257211846FEF7E6FE05000DD008
:102DF000AC7100F018F9E87100F018F9287200F0D1
:102E0000F8F8687200212800FEF702FE31BD38B5DF
:102E1000040001230D2262210020FEF7CDFE0500F3
:102E200012D0AC710121C01DFFF7C4FF042128009E
:102E30000B30FFF7BFFF634928000F30FFF7BAFFE1
:102E400000212800FEF7E4FD31BD38B50400012360
:102E5000032212210020FEF7AFFE050009D0AC715D
:102E60008021C901C01DFFF7B4FF00212800FEF733
:102E7000CFFD31BDF8B506000D001400012D1DD1A8
:102E8000202804D0222811D0812804D012E02078F4
:102E9000FFF7A4FF12E0C82149004B4800F01EF9DB
:102EA000227800218120FFF77BFF07E02078FFF7E1
:102EB000AEFF03E02278FF21FFF772FF002D63D100
:102EC0003000012809D0032812D0072840D011284B
:102ED00056D12078FFF7B9FFF1BDFA2149003B48F0
:102EE00000F0FCF8227800210120FFF759FFF1BD26
:102EF0002000401CFFF768FF0700E2782100091D51
:102F000000F047F9060001D1052200E00322002E5F
:102F100001D1052100E0062101230020FEF74CFE2F
:102F2000050031D02078A87139002800C01DFFF7B6
:102F300050FF002E07D100F007F9010089B22800E8
:102F40000930FFF746FF00212800FEF761FDF1BDC3
:102F50006078060000F064F9002801D1082100E043
:102F60000921012302220020FEF726FE05000BD0D6
:102F70002078A871EE7100212800FEF749FDF1BD0F
:102F80002278FF21FFF70CFFF1BD002900D1704727
:102F900080B50020FFF73BFF0020FFF756FF01BD83
:102FA00080B503790200921D8078FFF763FF00204F
:102FB00002BD80B50648FEF7E7FC0648FEF7FCFCBC
:102FC00001BD00005905000055300000D13000005F
:102FD0008B2F0000A12F00000121C006C00E8140F0
:102FE000454801607047454845490160BFF34F8F30
:102FF000FEE7BF2080000068444988420BD0454965
:1030000088420CD04049884203D04149884204D0CC
:1030100007E001207047022070470320704704201A
:10302000704700207047374800687047354840684F
:10303000704710B5384C2068FDF716F96168814279
:1030400007D23648FEF72FFEA068002801D0A068FE
:10305000804710BD80B5FFF7C6FF01BD80B572B6D1
:103060002F48416801682F4A0A4002601520FFF787
:10307000B3FF2D48FEF720FB1220FFF7ADFF2B48D2
:10308000FEF71AFB1320FFF7A7FF29480168C907BD
:1030900001D501210160102102680B001A4200D005
:1030A00001600846FFF798FF6C2000F0EAF800F096
:1030B000DFF80C20FFF790FF1E4801680021C9438C
:1030C00001601D48026801601920FFF785FF01BDFE
:1030D00080B5FFF7C3FF00F0E1F801BD70B5050052
:1030E0000C000D4EFDF7BDF830607460B5600A212C
:1030F0000A48FEF7A7FD70BD80E100E00CED00E09E
:103100000400FA05E40600107073694E7856341214
:1031100021436587658721430C0000103330000090
:1031200000000240FFFFFFF80080004000C00040A8
:1031300000C001403C0000503C00015080B54948AF
:103140004068FDF791F802BD4648006880B27047BC
:1031500080B5FDF786F8434948608020C0010168CA
:10316000C0221202914202D30020C04302BD0021BE
:103170000A0003E03C4B9B5CC918521C03689A424E
:10318000F8D34068814201D1002002BD0020C04335
:1031900002BDF4B5C0B004000D00324EFDF761F879
:1031A000706060018021C901471840983C182F4881
:1031B000844201D3132031E0FDF753F8706040984A
:1031C000412801D3152029E0024629006846FFF76F
:1031D00095FC0025FFF77AFC641E2100090B3800DE
:1031E000000B00F069F8002800D01225002D07D14F
:1031F000409A6946380000F072F8002800D0132584
:10320000FFF76DFC0020306004E031683A5C8918FB
:103210003160401C40998842F7D3280041B0F0BD8E
:1032200038B50400FDF71DF80E494860802C01D325
:10323000142032BDFFF74AFC2000C0080025010021
:1032400000F03AF8002800D01225002D06D1210008
:10325000200000F05AF8002800D01425FFF73FFCAA
:10326000280032BDDC06001008400000FFFF00000F
:103270000548402101600548016820229143016012
:103280007047014908607047180000408080044082
:1032900005480068854605480068874600200068A4
:1032A0008546042000688746084000000C40000066
:1032B00080B5234A904701BD10B5814202D200205B
:1032C000C04310BD1F4C32226262A062E162210045
:1032D000103120002430FFF7EBFF206910BD10B53E
:1032E000184C33236362A062E162226316480068CF
:1032F000FA218900FCF728FF6063210010312000CB
:103300002430FFF7D5FF206910BD10B5814202D2ED
:103310000020C04310BD0B4C3B226262A062E16200
:1033200009480068FA218900FCF70EFF206321009C
:10333000103120002430FFF7BBFF206910BD0000D2
:10334000F11FFF1F0C0600101C0000103E48006813
:1033500087463E480068006887463D4800688746C3
:103360003C48006887463C48006887463B48006800
:1033700087463B48006887463A48006887463A488F
:103380000068006887463948006887463848006802
:103390008746384800688746374800688746374878
:1033A0000068874636480068874636480068874682
:1033B00035480068874635480068874634480068C5
:1033C0008746344800688746334800688746334854
:1033D000006887463248006887463248006887465A
:1033E00031480068874631480068006887463048A1
:1033F000006887462F480068006887462E480068A6
:1034000087462E48006887462D48006887462D4825
:103410000068006887462C48006887462B4800688B
:1034200087462B480068006887462A480068874618
:103430002948006887462948006887462848006868
:10344000874628480068874610400000B41F0010D7
:1034500018400000144000001C40000034400000F0
:103460003840000040400000C81F001048400000E5
:103470004C40000050400000544000005840000004
:103480005C400000604000006440000068400000B4
:103490006C40000070400000744000007840000064
:1034A0007C4000008040000084400000B81F0010F5
:1034B0008C400000C41F00109440000098400000A1
:1034C0009C400000B01F0010A4400000A840000075
:1034D000BC1F0010B0400000B4400000B840000025
:1034E000BC400000C040000070B443480168434A3B
:1034F0000A4002604249434A0A600122C263002333
:1035000003640264046CE407FCD54468640A640242
:103510002225254345603C4C25688026B54325601F
:103520008468E407FCD50324C46603670267036F5D
:10353000DB07FCD5426708684200101848608860C5
:1035400070BC704770B5314900200860AA228A60BB
:1035500055238B600C690325AC430C6102240D6874
:1035600025430D602A4D4D6048610D6801262E43AC
:103570000E608A608B6027490C60274A136800231D
:10358000DB431360254C264A226008621E490A6804
:1035900020239A430A6000E0401CFF28FCD9FFF773
:1035A000A3FF20688021490201432160FDF787FBCA
:1035B00070BD72B61B481C4981611C4941611C49A0
:1035C000C1611C4901611C4901621C4941601C49DF
:1035D00041621C4981601C4981621C49016070473D
:1035E00072B61B481B4901614C31C160083901604A
:1035F000243141607047000004800440FF7FFFFFDA
:1036000018000010405DC6003882044000400040B1
:10361000808D5B000080044080E200E080800440F8
:103620001F800000B41F00102F020000CC1F0010EC
:10363000F90A0000D01F001097140000D41F0010DA
:10364000310F0000D81F0010C9390000DC1F001026
:10365000B81F00104440000070B5002630000CE098
:103660004B4942001218D200891802220A60322205
:103670004A608E600E614E61401C0B28F0DB30000A
:1036800007E041000918C900414A5118414A4A60FF
:10369000401C0628F5D300F083F83F4C25681F2016
:1036A000206002E088432060761C052E10D2300096
:1036B00000F09EF8364972009219D200891808610C
:1036C0000121B140C0072068ECD401432160EBE741
:1036D0002068A84204D060688021490501436160E8
:1036E0000F212E48FEF7AEFA70BDF0B583B02A4F19
:1036F000B86800284AD100240194254D03E08A438C
:103700003A600190641C0B2C38D2200000F070F855
:103710000028F7D461000919C9006E187169814247
:1037200009D07061052C03D2FCF79BFDE86002E034
:10373000FCF797FDF060706931698842E2D0052C92
:1037400002D26868009001E07068009003D2E868D7
:10375000FCF78AFD02E0F068FCF786FD00998842DC
:10376000D0D372693261052CCCD201200100A14076
:10377000D2073A68C3D411433960C2E701980028E0
:1037800004D078688021490501437960F7BD0000C5
:10379000E4030010DC050000A4060010EB36000076
:1037A00070B59026114C206830432060606830432B
:1037B0006060A0683043A060E0683043E06020694A
:1037C00030432061142505E0002229001046FDF752
:1037D0008CFA6D1C192DF7DBE0690643E6610022C7
:1037E0001B211046FDF781FA70BD00000C4004401B
:1037F00001000020C043052900D3704780B5143173
:103800000020FDF7B8FA02BDF8B5FFF79BFE444F64
:103810004448386000684449884203D0FFF798FC68
:1038200000282DD0002634000CE025000E350122A2
:1038300029003046FDF759FA012229003046FDF7EC
:1038400083FA641C042CF0D3FFF7B3FEFCF7FBFCF7
:10385000FFF702FF3046FDF785FBFFF7AAFB38684C
:10386000066000F013F828213048FEF7EBF9FA2142
:1038700089002F48FEF7E6F962B6FEF73FFA03E04B
:10388000FFF7AEFEFFF704FD0020F2BD10B50224E5
:103890000AE0012221001046FDF727FA012221004B
:1038A0001046FDF751FA641C062CF2DB10BD38B54A
:1038B000204C2068FCF7D8FC3D2827D3022505E0E2
:1038C000012229001046FDF73FFA6D1C062DF7DB9B
:1038D0006168881E042803D200220120FDF734FA13
:1038E0006168481E042804D20022491C0120FDF70B
:1038F0002BFA6068A1680A18072A01D34A42A2601D
:10390000A16840186060FCF7ACFC206031BD80B558
:10391000FFF714FC0849884201D3FFF7BFFC01BD43
:1039200004070010C01F001021436587AF38000056
:103930000F39000000000010C1D4010010B5084983
:1039400079441C31074C7C441A34A14206D0081D2E
:103950000A68891888470100A142F8D110BD00BF4C
:10396000300000005000000010B400210268001D6B
:10397000002A0BD00368001DDC0702D54C46641EEC
:103980001B1919601B1D121FFBD1EFE710BC7047FC
:10399000D9FFFFFFEC06000024000010000000002B
:1039A000D7C7FFFF240000007C00000000000010CB
:1039B00000000000024803490160BFF34F8FFEE79B
:1039C0000CED00E00400FA0580B500BFFFF7F2FF40
:1039D00001BD00000120C046002801D0FFF7AEFF66
:1039E0000020FFF711FF00F000F880B500F002F8AA
:1039F00001BD00000746FFF751F9384600F002F814
:103A0000FBE7000080B5C046C046024A11001820FE
:103A1000ABBEFBE726000200C046C046C046C0461B
:103A2000FFF7D8FF000000000000000001000000C8
:103A300000000000F40100000000000000093D004B
:083A400000093D0000093D00F2
:043FFC0004010104B7
:10400000D0A50000E4123C00881B00103DE5000034
:10401000138400005DE4000069E400006DE400002A
:1040200071E4000084E9FAEF0000000000000000E5
:104030000000000075E4000079E4000000000000CA
:104040007DE400008B8400001384000013840000D2
:104050001384000013840000138400001384000004
:1040600013840000138400001384000013840000F4
:104070001384000013840000A98D000013E40000E5
:10408000E9E30000138400009FCC000013840000CB
:1040900071AC0000CF99000013840000119600005D
:1040A000138400001384000013840000B193000007
:1040B00013840000138400001384000013840000A4
:1040C0001384000000000000000000000000000059
:1040D00000000000000000000000000000000000E0
:1040E00000000000000000000000000000000000D0
:1040F00000000000000000000000000000000000C0
:1041000000000000000000000000000000000000AF
:10411000000000000000000000000000000000009F
:1041200000000000000000000000000010B54B4B34
:104130001B681C001BD00400052C0CD0062C10D0D2
:10414000082C13D1BB488830007840070FD5FF21D9
:10415000082098470BE0B74C88342478240705D40E
:1041600005E0B44C88342478E40600D59847BB4871
:10417000FF21C17010BD002900D1704780B500F04B
:1041800013FE01F009FD02F0B9F901BD0021A94BB0
:1041900000E0491C022906DA4A019A181269824293
:1041A000F7D1012070470020704730B40021C94387
:1041B0000A0000239F4D00E05B1C022B05DA5C0126
:1041C0002C1924698442F7D11A008A4207D0500181
:1041D0002946081841690800C007C00F00E0002008
:1041E00030BC704770B586B0060014004801914A93
:1041F00011188969C9B241290CD11369002B02D069
:104200005369DB0605D4136B002B03D0536BDB061D
:1042100000D542211518EA69300000F021F96869DB
:10422000800709D5002001900090EB6AAA6A696AAC
:10423000C9B2300002F09CFC002C0DD0002004908C
:10424000039002908020019000200090802302467D
:104250001946300002F0EBFF06B070BD6C1500107F
:1042600070B586B004000D00FFF79FFF002800D056
:10427000DDE00022D243160000206E4B00E0401C1F
:10428000022805DA410159180969A142F7D106004F
:10429000964200D1CBE0082D00D9C8E001A0405DD6
:1042A0004000874404C40A5F7378C4839C000122E1
:1042B00031002000FFF796FFB9E06848007BC00797
:1042C0003BD5700119460D18A8695C2822D0412100
:1042D000200000F0C5F80020049001200390002089
:1042E0000290802001900020009080230246194611
:1042F000200002F09CFF6869800700D497E000204E
:1043000001900090EB6AAA6A696AC9B2200002F0C3
:104310002FFC8CE08020E969002903D4E969084377
:10432000E86100E0E8614121200000F099F80022F6
:1043300031002000FFF756FF79E04121200000F016
:104340008FF800200490012003900020029080202C
:10435000019000200090802302461946200002F0C0
:1043600066FF64E04821200000F07AF80120049004
:104370000390002002908020019000200090802374
:1043800002461946200002F052FF50E04921200069
:1043900000F066F84BE0700119460818006A002822
:1043A00023D14C21200000F05BF830E07001194669
:1043B0000818006A00280DD0002231002000FFF705
:1043C00011FF07200090034600221146200002F052
:1043D00069FF1CE04A21200000F042F817E070015C
:1043E00019460818006A00280DD00022310020006C
:1043F000FFF7F8FE0120009003460022072120006D
:1044000002F050FF03E04B21200000F029F80120CA
:10441000049005200390002002908020019000204D
:104420000090802302461946200002F000FF06B0EB
:1044300070BD0000800F001038B50400A148047062
:10444000002507E0210068019F4A10180069FFF766
:1044500007FF6D1C022DF5DB31BD0000B813001005
:1044600070B504000D001600FFF790FE002809D07B
:104470002000FFF79AFE002804D132002900200016
:1044800002F096FE70BD30B4032801D31E201AE05E
:104490000021C9430A0000238B4D00E05B1C022B66
:1044A00005DA5C012C1924698442F7D11A008A428A
:1044B00008D0500129460818416901220A43426187
:1044C000002000E0212030BC704738B5032801D31C
:1044D0001E2032BD0021C9430A0000237A4D00E0AE
:1044E0005B1C022B05DA5C012C1924698442F7D18C
:1044F0001A008A420CD051012A4651184A690123F8
:104500009A434A616F490978FFF7AAFE002032BD3D
:10451000212032BD80B56C490A69002A02D08A691F
:10452000412A05D00A6B002A04D08A6B412A01D1A6
:10453000012200E000220B69002B02D04B69DB0650
:104540000BD40B6B002B0AD04B6B10210B401900C6
:10455000491E8941C943C90F02E0012100E0002141
:10456000002900D000220100100000F005FD02BD6E
:10457000422803D0522801D05E2807D1002903D059
:1045800030201040302801D00120704700207047B3
:10459000F1B58EB000252C4613E009AA4B781350D4
:1045A00007AA8B78135005AACB78135003AA0B796E
:1045B000135001AA49791150600005196D00AD1D15
:1045C000641C022C0CDA6000001940000E990918D6
:1045D000A0000A780BAB1A50032ADED31E206EE02F
:1045E00039480078C00701D51A2068E0002407E0A8
:1045F00000207062B0627069022188437061641C9F
:10460000022C58DA600130490E18A0000BA9085896
:10461000306100207061A00009A90858B061A100B4
:1046200007AA575805AA515800910A463900FFF7C2
:104630009FFF002803D07069102101437161002F92
:1046400001D0009801E00020C043F061A00001A962
:1046500008583062F06A03F0DDFA0020F062A00032
:1046600003A908580028C3D00E98405D00906D1C27
:104670000E98475D6D1C380003F0C7FA002805D17D
:104680007069022188437061152018E000997162F9
:10469000B762F062002005E029180E9A515CF26AB8
:1046A0001154401CB842F7D3706902210143716173
:1046B000B06A2D18A3E70120FFF72CFF00200FB0F0
:1046C000F0BD000089000010800F0010FBB516003F
:1046D000032801D31E20FEBD0020C043002739005F
:1046E00000E0491C022907DA4A01A84B9A1812690E
:1046F000009B9A42F5D108000021C943884201D1AC
:104700002120FEBD3D004001A0490C18A06901997F
:10471000884203D1206A0C99884200D00125019873
:10472000A0610C982062029A31000198FFF720FFE7
:104730000028606903D010210143616102E010216B
:1047400088436061002EE06906D00299884200D05B
:1047500001250846E06106E00021C943884200D0F7
:1047600001250846E0613E000898002803D06069F2
:10477000800700D401260898002803D160698007CB
:1047800000D501260898002818D0606A0999884247
:1047900003D1A06A0A99884200D00126E06A002865
:1047A0000CD0380007E0E16A095C0B9A125C914278
:1047B00000D00126401C0A998842F4D3E06A03F035
:1047C00029FAE762089800281DD00A9803F01DFA1C
:1047D000002805D160690221884360611520FEBD73
:1047E000099961620A99A162E06204E0E06A0B99AA
:1047F000C95DC1557F1C0A988742F7D360690221C1
:104800000143616105E06762A76260690221884334
:1048100060612E431AD00020FFF77CFEA3494A6A4C
:10482000002A13D0FF2802D0FFF706FE0EE04878DA
:10483000002804D100210098FFF712FD06E0487817
:10484000022803D102210098FFF70AFD0020FEBDD7
:1048500038B50C004D490D186878FF2801D10A20A1
:1048600032BD2100687801F0FBFE2100687801F07C
:1048700007FD002032BD38B50C0044490D18EA7A16
:10488000FF2A01D10A2032BD00280AD188228A5C81
:10489000520720D5854A127F1300DB07DB0F9C42AD
:1048A00019D001280AD188228A5C120713D57F4AC1
:1048B000127F13009B07DB0F9C420CD002280CD107
:1048C00088310978C90606D57849097F0A00520758
:1048D000D20F944201D1002032BD00280AD1734882
:1048E000017FFE220A4021000B00DB07DB0F134390
:1048F000037718E001280AD16C48017FFD220A40A5
:104900002100490002231940114301770BE00228DE
:1049100009D16648017FFB220A4021008900042357
:104920001940114301772100E87A01F099FE210036
:10493000E87A01F0A5FC002032BD14490A189279EA
:10494000FF2A01D10A20704708188079012181408F
:104950009A4A13680B4016D013688B43136098492A
:1049600008180178002901D10D207047017801292C
:1049700001D10C2070470178032902D00078022869
:1049800001D10F207047102070470000800F0010E9
:1049900030B40021584A1369002B18D0136B002B38
:1049A00015D0102354691D002C4202D0946B412C69
:1049B00005D0546B2C4203D09469412C00D10121C5
:1049C00054692C4203D0546B1C4200D0012113695E
:1049D000002B06D0136B002B03D15369DB0600D5E7
:1049E0000121136B002B06D01369002B03D1526BEE
:1049F000D20600D50121002903D0012801D00020D2
:104A000007E02A48817801220A4382700221C1709E
:104A1000002030BC704770B5002634000CE03648EA
:104A200005196878FF2806D0687801F054FE010067
:104A3000687801F025FC641C052CF0D30CE02E48AE
:104A40008419E07AFF2806D0E07A01F044FE0100E4
:104A5000E07A01F015FC761C032EF0D370BD1349EB
:104A6000496A002900D1704780B5B5490978406886
:104A7000FFF7F6FB01BD10B504006068FFF725FDE8
:104A8000212805D10022D2434021200002F084FADF
:104A900010BD4C4A526A002A00D1704780B50029E7
:104AA00002D04068FFF711FD01BD0000B8130010EF
:104AB00044494A6A002A00D1704780B5002803D0D3
:104AC000022811D008D301BD0879800713D5012130
:104AD0000020FFF7D0FE01BD487805280BD1012149
:104AE0000846FFF7C8FE01BD087BC00603D50121BB
:104AF0000220FFF7C0FE01BD800F001031494A6A55
:104B0000002A00D1704780B5002803D0022811D0B8
:104B100008D301BD0879800713D500210846FFF7A7
:104B2000AAFE01BD487805280BD100210120FFF71E
:104B3000A2FE01BD087BC00603D500210220FFF7BD
:104B40009AFE01BDF8B50C0015001E4E716A0029D1
:104B500025D0B94F88373978490708D5002806D1BC
:104B60003079800703D500210846FFF784FE3878A6
:104B7000000708D5002C06D17078052803D1002144
:104B80000120FFF778FE3878C00608D5002D06D141
:104B9000307BC00603D500210220FFF76CFEF1BD7B
:104BA00080B5A64803F059F8A54803F059F8A54880
:104BB00003F059F8A44801F031FF01BDC8120010FC
:104BC000AC120010B8130010F1B582B09F4C606AAF
:104BD000002801D00020FEBDA06A002804D19C4816
:104BE00001F004FF0120A062E06A002804D1994886
:104BF00001F0CCFE0120E0626846007A062801D36D
:104C00000420FEBD0125207B40082E000640206ABE
:104C10000090207FC0082F000740E0782422002168
:104C2000200003F08FFB6846007A2070207800286F
:104C300004D002284FD004285FD00CE07E48C17910
:104C4000FF294CD04178FF295BD08179FF2962D1BF
:104C5000007AFF2864D16562774801782A000A4308
:104C60000270FB20217C01402174217CF7220A4044
:104C70002274FE21227C0A402274227B1040207381
:104C8000207B0140300005400D432573207BFD2132
:104C90000140700008432073FF20E070002F41D0D6
:104CA000009803F026FCB249884241D20121042039
:104CB000FFF7CEFD0320607003F018FCA060032016
:104CC000FFF7BAFB207BC00632D4FF22022103206B
:104CD000FFF72CFA2CE05848C179FF2901D11820A0
:104CE000FEBD8179FF2901D11920FEBD4178FF2940
:104CF00007D0007AFF2813D1ADE74F484178FF294C
:104D000001D11720FEBDC179FF2901D01B20FEBDB6
:104D10008179FF2901D01C20FEBD007AFF289AD09E
:104D20001D20FEBD207B800702D40020FFF784FBFE
:104D30000A21904803F02EFCFFF76DFE0020FEBD17
:104D40008900001010B5414C207980070BD53A48F6
:104D50008821415C490706D5C07AFF2803D000218D
:104D60000846FFF788FD607805280CD13248882175
:104D7000415C090707D50B304078FF2803D000219C
:104D80000120FFF778FD207BC0060CD52A4888213A
:104D9000415CC90607D50B308078FF2803D000217D
:104DA0000220FFF768FD10BD38B5284C606A012865
:104DB00033D100256078032801D1012000E02800CC
:104DC000217FF7220A40C0000821084010432077C5
:104DD000284600F0AAF829460420FFF739FD2946A5
:104DE0000220FFF748FD29460120FFF744FD294630
:104DF0000846FFF740FD65620F480178FE220A4031
:104E000002705C4803F0F7FBFFF79CFF02F078FFAD
:104E100002F02CFF03F06AFB2062002032BD0B4839
:104E20008178C90705D58178FE220A408270012069
:104E30007047002070470000800F0010B14A00004A
:104E4000FD4A0000454B0000774A0000B8130010EF
:104E50005F4A0000934A0000F8B500273C46AB4B80
:104E600001250EE00F2900D12F00002F08D11029B5
:104E700006D00F2904D0A648017BDF220A40027326
:104E8000641C022C49D2A3480019407AFF28F7D0AD
:104E90001021A0480019427A280090401E68064060
:104EA00015D01E6886431E609B4880180278002A31
:104EB00001D10D210BE00278012A01D10C2106E07D
:104EC0000278032A02D00078022800D10F210C2991
:104ED000C8D10020009006460AE0C269C169C943F2
:104EE000C90F8069FFF744FB002800D00095761CAD
:104EF000022E0ADA70018749081801690029F6D0E4
:104F0000C1690029E9D50022E8E70098002804D10A
:104F10007F4881780D438570C470002F04D07C4891
:104F2000017B20220A430273F1BD38B50400AE4D67
:104F3000287B01004907C90F8C4217D021000020AF
:104F4000FFF786FC21000220FFF782FC21000120F0
:104F5000FFF77EFC21000320FFF77AFC287BFB2172
:104F60000140A000042210400843287331BD000016
:104F7000881300009D56000038B50D00644C616A2E
:104F8000002900D17FE0217BC9073DD500283BD116
:104F9000207BFE21014021730020FFF7C6FF6078CF
:104FA000032804D10020FFF7F3FCFF2032BD607816
:104FB0000228FAD157488079FF2810D00420607069
:104FC000207BC00604D4FF2211460420FFF7AEF870
:104FD000002D02D00420FFF72FFA042032BD00205C
:104FE000607001460420FFF733FC207BC00604D428
:104FF000FF2200210846FFF799F8002D02D000207B
:10500000FFF71AFA002032BD217BC90746D40128D8
:1050100044D1207B0121014321736078002806D10F
:105020000120FFF782FF01210420FFF711FC6078C7
:10503000002805D06078012802D0607804280ED1BD
:1050400002206070207BC00604D4FF22114602209B
:10505000FFF76CF8002D02D00220FFF7EDF9607821
:10506000032805D10120FFF760FF0020FFF790FC27
:105070006078052805D10120FFF757FF0020FFF7D2
:1050800087FC022032BD0100491E8941C943C90F76
:10509000227BFD231340490019432173401E8041A8
:1050A000C043C00F217BFE220A400100114321733F
:1050B000FF2032BD012807D010D3032808D005D324
:1050C000052809D006D309E0012070470220704767
:1050D0000320704704207047052070470020704768
:1050E0000C4A12189279FF2A0FD03F4A1018427BBF
:1050F000002A04D10F2908D10121417370471029DA
:1051000003D00F2901D0002141737047C81200104D
:10511000B8130010800F0010AC12001038B5012039
:10512000FFF70BFC04000020FFF707FC05000C2C28
:1051300004D12D48017C01220A4302740D2C04D1B4
:105140002948017CFE220A4002740C2D04D1264815
:10515000017C02220A4302740D2D04D12248017CF5
:10516000FD220A400274FFF777FE21000120FFF7BD
:10517000B7FF29000020FFF7B3FF00210A001A48FB
:1051800000E0521C032A04D283185B7B002BF8D06A
:105190000121027BD20612D4012902D0017B8906AB
:1051A00021D5017B10220A430273FF22032106202E
:1051B000FEF7BCFF01210220FFF75DFB31BD012995
:1051C00011D0017B89060ED4017BEF220A400273C5
:1051D0004078FFF76FFFFF220421FEF7A7FF0021B1
:1051E0000220FFF748FB31BDB813001010B5A34CE7
:1051F000207BC0076AD4207C400712D4207CC007E3
:105200000FD5607802280CD06078032809D0607828
:10521000052806D003F06AF96061207C042101436F
:105220002174207C400738D5606903F062F9944905
:105230006C310A68904230D3207CFB2202402274F9
:10524000207CC00714D56078022811D0607803282C
:105250000ED0FF2203210520FEF768FF012108463A
:10526000FFF709FB0520FFF7E7F80520607012E063
:105270000879C0070FD5FF2203210520FEF756FF4E
:1052800001210846FFF7F7FA207C08210143217429
:1052900003F02CF9A061012010BD207C000715D57A
:1052A000A06903F026F9FF21F63188420ED3607819
:1052B000FFF700FFFF220421FEF738FF0021012045
:1052C000FFF7D9FA207CF72101402174002010BD9E
:1052D00010B56A4C207BC0072DD5207B80072AD5CE
:1052E0000120FFF722FE01210420FFF7B1FA207C04
:1052F000C00710D50320607003F0F8F8A060032009
:10530000FFF79AF8207BC00611D4FF220221032068
:10531000FEF70CFF0BE0207BC00604D4FF221146F1
:105320000220FEF703FF02206070FFF785F8207B64
:10533000FD2101402173FFF772FD002825D00120D7
:10534000FFF7F3FD01210420FFF782FA4C48807932
:10535000FF28207B0BD0C00604D4E278FF21012077
:10536000FEF7E4FE01206070FFF766F80AE0C00671
:1053700004D4E278FF210220FEF7D8FE02206070FC
:10538000FFF75AF803F0B2F8A06010BD10B53B4C1F
:10539000FFF745FD002802D003F0A8F8A060A06840
:1053A00003F0A7F83649096D884213D30020FFF7B0
:1053B000BCFD00210420FFF74BFA00206070FFF7CE
:1053C0003BF8207BC00614D4FF2201210020FEF709
:1053D000ADFE10BD207C80070BD4207BC00604D41A
:1053E000FF2211460220FEF7A1FE02206070FFF7A7
:1053F00023F810BD10B5214C207BC00723D4FFF744
:105400000EFD002802D003F071F8A060A06803F040
:1054100070F81B490A6E096D5118884213D3002099
:10542000FFF783FD00210420FFF712FA00206070CF
:10543000FFF702F8207BC0061ED4FF2201210020C6
:10544000FEF774FE10BD207CC00715D5207BC00779
:1054500002D40020FFF769FD0320607003F046F8D6
:10546000A0600320FEF7E8FF207BC00604D4FF22E3
:1054700002210320FEF75AFE10BD0000B8130010F1
:10548000800F001010B5984CFFF7C9FC00282BD0F6
:105490002079800713D52079FD2101402171002159
:1054A0000846FFF7E8F9E278FF210320FEF73EFE09
:1054B0000320FEF7C1FF01210420FFF7C9F920797D
:1054C000C0070ED52079FE2101402171207BC00646
:1054D00004D4E278FF210320FEF728FE0320FEF724
:1054E000ABFF03F003F8A060A06803F002F8217B93
:1054F000C9073DD4217989071FD47C49496D884269
:105500001BD320790221014321712079FE21014022
:1055100021710820FEF790FF207BC00604D4FF22F3
:1055200011460820FEF702FE01210020FFF7A3F933
:1055300000210420FFF78CF91AE02179890717D49C
:105540002179C90714D469494A6D896D511A884275
:105550000ED320790121014321710720FEF76CFF52
:10556000207BC00604D4FF2211460720FEF7DEFD93
:10557000207CC00742D42079800707D52079FD21FF
:105580000140217100210846FFF775F92079C00715
:1055900003D52079FE2101402171207BC00721D451
:1055A00052488079FF280CD004206070FEF744FF39
:1055B000207BC00622D4FF2211460420FEF7B6FD50
:1055C00010BD00206070FEF737FF207BC00604D4BA
:1055D000FF2200210846FEF7A9FD00210420FFF765
:1055E00037F910BD02206070FEF726FF207BC00651
:1055F00004D4FF2211460220FEF798FD10BD10B51D
:10560000394C207C80070FD500206070FEF714FF16
:10561000207BC00604D4FF2200210846FEF786FD49
:1056200000210420FFF714F910BD10B52E4CFFF730
:10563000F6FB00281AD02079FE210140217102F0EA
:1056400055FFA06003206070FEF7F6FE207BC006C9
:1056500004D4E27802210320FEF768FD0021012036
:10566000FFF709F901210420FFF7F2F8207CC007B9
:1056700013D400206070FEF7DFFE207BC00604D448
:10568000FF2204210020FEF751FD00210120FFF739
:10569000F2F800210420FFF7DBF810BD10B5124C22
:1056A000606A00281ED0FFF739FDFFF79FFD607884
:1056B000052817D801A1095C8F4400BF060C1218F9
:1056C0001E24FFF705FE10BDFFF760FE10BDFFF7BB
:1056D00091FE10BDFFF7D6FE10BDFFF790FF10BD85
:1056E000FFF7A3FF10BD0000B8130010800F0010DB
:1056F0009E49486070479E49C86370479C4908644A
:10570000704710B50101091A89009A4A511894226C
:10571000520096235B00CB58C918895C934A5368A2
:105720001C0005D0126801248440144000D0984722
:1057300010BD70B50400002507E08C4801680E43D9
:1057400006602800FFF7DDFF6D1C202D09D2012621
:10575000AE403442F8D002F0F5FF8542EDD302208E
:1057600070BD002070BD80B5804900220A60FFF73F
:10577000E0FF02BD70B50400002504E07B4801682D
:10578000B14301606D1C202D09D20126AE40344288
:10579000F8D002F0D7FF8542F0D3022070BD002080
:1057A00070BD38B500240FE0842040002101091BA2
:1057B0008900704A511808580021C943884202D014
:1057C0002000FFF79EFF641C02F0BCFF8442EBD375
:1057D000674CE26B10001AD00125207C29000140A3
:1057E00007209047207C0100C9090820E26B904700
:1057F00003F098F9607C290001400920E26B904792
:10580000607C4008054029000A20E26B904731BDCA
:1058100030B40101081A8000564908188421490053
:10582000415801290CD100218E235B00A44D05E0D5
:105830008A008418AA18526AE250491C0329F7D337
:10584000002030BC7047842149000201101A8000FA
:10585000484A101840180168002902D19849896BFC
:1058600041610020704770B504000026F64302F045
:1058700069FF844201D3300070BD3D4D0120686353
:10588000842040002101091B89003A4A51180E501A
:10589000FF21200003F061FB0020686370BD70B53C
:1058A000BC4B9A4203D2914201D2884202D30020DB
:1058B000C04370BD824C012363636062A162E262F7
:1058C00000252E0003E03000FFF7A2FF761C02F057
:1058D00039FF8642F7D36563284670BDFEB582B0B6
:1058E00004000B9D02F02EFF844202D30020C0432F
:1058F00038E01F4E012777630021200000F0CEFA28
:10590000200000F05FF90298322801D23220029084
:10591000842040002101091B8900164A51180818EB
:10592000076002994160039981600499C1600A99F6
:10593000016187632000FFF76BFF002D08D1032072
:1059400000903B4600220221200000F015F807E0FD
:105950000320009000233A460221200000F00CF8BA
:105960000020706305B0F0BD0000000000150010BD
:10597000981200108C000010FEB50400089F02F081
:10598000E1FE844202D30020C043FEBD4C4D0126FF
:105990006E630021200000F081FA2001001B8000CE
:1059A000934908189421490041186A4612780A70F0
:1059B0006A4612794A706A46127A8A70CF708E618E
:1059C00000226A638A68FF2A0BD02A19127D942369
:1059D0005B0049684018C05C824202D0200000F0A1
:1059E0008FFA0020FEBDFEB504000F00089D02F0F6
:1059F000A9FE844202D30020C043FEBD304E0120E8
:105A000070630021200000F049FA200000F0DAF86D
:105A1000322F00D23227842040002101091B890047
:105A2000734A51180818002101604760019981608C
:105A30000299C160012181632000FFF704FF002D5E
:105A400005D100220121200000F009F804E0012224
:105A50000021200000F003F800207063FEBDF4B5C3
:105A600004000F0002F06EFE844202D30020C04307
:105A7000F2BD134D01266E630021200000F00EFAE6
:105A80002001001B80005A49081894214900411840
:105A90000F706A4612784A708E6100226A638A68C3
:105AA000FF2A0BD02A19127D94235B004968401805
:105AB000C05C824202D0200000F022FA0020F2BD39
:105AC0009812001038B505000C0002F03EFE854229
:105AD00003D202F037FE844202D30020C04332BD1D
:105AE0002001001B800042490A189620400010182F
:105AF0000121A940C3680B43C36094235B00046881
:105B00001219D25C012A09D103690B4206D119434B
:105B100001610121280000F0A3FD0AE0002A08D15C
:105B200003690B4205D08B4303610021280000F07C
:105B300097FD002032BD70B506000C0002F005FE96
:105B4000864203D202F0FEFD844202D30020C0430D
:105B500070BD2001001B80002549081896214900CE
:105B600044180121B140CD43E2682A40E26094220A
:105B700052002368C018805C012809D120690140C7
:105B800006D00021300000F06BFD20690540256142
:105B9000002070BDFF03000070B500252E0009E055
:105BA00031002000FFF7C7FF641C02F0CEFD8442E5
:105BB000F6D3761C02F0C6FD864201D22C00F4E733
:105BC000284670BD962149000201121A9200084B26
:105BD0009A185118FF224A6000238B600A60C74957
:105BE0000B181A750A6B012383409A430A637047A6
:105BF0008C000010F8B5042002F059FDBF4DFF20C5
:105C0000483068627130A8629930E8625138A86300
:105C1000002426001FE0A048842149003201921B85
:105C20009200801840180021C94301603221416070
:105C30008460C4600461FF21816244620463446340
:105C400001228263A81901753000FFF7E1FD3000E1
:105C5000FFF7F9FD761C02F075FD8642DBD32C635D
:105C60002000220006E0810069180A704A708A70DC
:105C7000CA70401C0428F6DB01263000287002217F
:105C80000800A8703000E8702871032068713000A7
:105C9000E8710BE0804853009B18DB00C0180160DE
:105CA00032234360846004614461521C0B2AF1DB9F
:105CB000200007E041000918C900774A5118A64A98
:105CC0004A60401C0628F5D322460621304603F0E0
:105CD0004CFA22461321104603F047FA03F082FBE8
:105CE000287C4008C706FF0E287C3E21014329740A
:105CF00008E01040CB43590011403E220A400243C5
:105D00002A74641C052C17D2200003F093FB0200B8
:105D1000614861000919C900401802613100A140C1
:105D2000C120D2072A7CE4D41040490011433E220E
:105D30000A4002432A74E4E7287C4008C006C00EEB
:105D4000B8420BD0286B310701432963296C080046
:105D500004D0287C4008C006C00E884703F0B4F980
:105D60007E4803F009FC0F217D4802F013FCF1BDD1
:105D700070B505000C00002602F0E4FC854201D35A
:105D8000304670BD2801401B8000764908188421E8
:105D9000490041180A680023DB439A4201D130468A
:105DA00070BD002A03D0012A08D0304670BD486972
:105DB00084428041C043C00F70BD761C032E09D2BF
:105DC0008E214900B200821851588C42F5D2300021
:105DD000C0B270BD032070BD012804D027D30328B2
:105DE00019D00CD323E0862040000A01511A890003
:105DF0005C4A511808180168C06808187047862066
:105E000040000A01511A8900564A511808180168C1
:105E1000406808187047862040000A01511A89001E
:105E2000504A511808180168806808187047862081
:105E300040000A01511A89004A4A5118085870470F
:105E400080B5884226D000290CD0022903D011D376
:105E5000032917D01EE011008000284A105CFFF7CC
:105E6000BBFF02BD11008000244A10184078FFF7E4
:105E7000B3FF02BD11008000204A10188078FFF7A0
:105E8000ABFF02BD110080001C4A1018C078FFF75C
:105E9000A3FF02BD002002BD8C000010F2B5070078
:105EA000002425E09C2040003901C91B89002D4AAF
:105EB00051180E180125A5403068284017D00098C9
:105EC000002808D17068284205D0A84370600021DE
:105ED000200000F0C5FB0098002808D07068284218
:105EE00005D1054375600121200000F0B9FB641C59
:105EF00002F02BFC8442D5D3F1BD000098120010B3
:105F000038B504002001001B8000164908189621AE
:105F1000490041184A680A60942149008018455C8C
:105F20002900200003F019F80F4801190D75016BC5
:105F30000122A2400A430263002D03D10021200068
:105F4000FFF7ACFF012D03D101212000FFF7A6FFD1
:105F50002000FFF7D6FB31BDDC05000040420F00FA
:105F60006D5F00008C00001098120010F0B583B037
:105F7000B74C606B002800D068E103F03CFB0028C0
:105F800000D163E100251AE0942149003818405CF3
:105F90002A0094214900B36AFB18595CFFF750FFAF
:105FA0000700F06A02F0A5FAB84202D2B06B0028EE
:105FB00004D02800FFF7A4FF0020B0636D1C02F09E
:105FC000C1FB854221D2A34E2801401B8000371817
:105FD000842040003E1830680021C9438842EDD03B
:105FE000A8009D4909582800FFF7C2FEB16A814206
:105FF00003D0B06202F07AFAF062706AB16A81424C
:10600000DCD0FF28C0D1FF20C2E700200190054668
:1060100008E00640D7437A0002401340334323741C
:1060200001916D1C0B2D00D300E102F07BFD062DCC
:1060300007D031D3082D0ED008D30A2D1ED00FD390
:106040002AE01B21002003F0D6F828E006210120D9
:1060500003F0D1F823E01321002003F0CCF81EE078
:10606000012803D0022801D00328DAD102F022FE51
:10607000012801D1012012E0002010E0012803D006
:10608000022801D00328CCD102F029FE012801D139
:10609000012004E0002002E0280003F0CBF90028F2
:1060A000BFD46C4E69004919C900771879698142DB
:1060B0000BD07861052D05D202F018FA3100091DC8
:1060C000886002E002F012FAF86078693969884263
:1060D000A7D0052D02D27068009001E0786800908A
:1060E000072D08D13000A0308169002903D1009923
:1060F000006908180090052D05D23000001D806849
